:0200000007FFF8
:0200010007FEF8
:0200020007FDF8
:0200030007FCF8
:0200040007FBF8
:0200050007FAF8
:0200060007F9F8
:0200070007F8F8
:0200080007F7F8
:0200090007F6F8
:02000A0007F5F8
:02000B0007F4F8
:02000C0007F3F8
:02000D0007F2F8
:02000E0007F1F8
:02000F0007F0F8
:0200100007EFF8
:0200110007EEF8
:0200120007EDF8
:0200130007ECF8
:0200140007EBF8
:0200150007EAF8
:0200160007E9F8
:0200170007E8F8
:0200180007E7F8
:0200190007E6F8
:02001A0007E5F8
:02001B0007E4F8
:02001C0007E3F8
:02001D0007E2F8
:02001E0007E1F8
:02001F0007E0F8
:0200200007DFF8
:0200210007DEF8
:0200220007DDF8
:0200230007DCF8
:0200240007DBF8
:0200250007DAF8
:0200260007D9F8
:0200270007D8F8
:0200280007D7F8
:0200290007D6F8
:02002A0007D5F8
:02002B0007D4F8
:02002C0007D3F8
:02002D0007D2F8
:02002E0007D1F8
:02002F0007D0F8
:0200300007CFF8
:0200310007CEF8
:0200320007CDF8
:0200330007CCF8
:0200340007CBF8
:0200350007CAF8
:0200360007C9F8
:0200370007C8F8
:0200380007C7F8
:0200390007C6F8
:02003A0007C5F8
:02003B0007C4F8
:02003C0007C3F8
:02003D0007C2F8
:02003E0007C1F8
:02003F0007C0F8
:0200400007BFF8
:0200410007BEF8
:0200420007BDF8
:0200430007BCF8
:0200440007BBF8
:0200450007BAF8
:0200460007B9F8
:0200470007B8F8
:0200480007B7F8
:0200490007B6F8
:02004A0007B5F8
:02004B0007B4F8
:02004C0007B3F8
:02004D0007B2F8
:02004E0007B1F8
:02004F0007B0F8
:0200500007AFF8
:0200510007AEF8
:0200520007ADF8
:0200530007ACF8
:0200540007ABF8
:0200550007AAF8
:0200560007A9F8
:0200570007A8F8
:0200580007A7F8
:0200590007A6F8
:02005A0007A5F8
:02005B0007A4F8
:02005C0007A3F8
:02005D0007A2F8
:02005E0007A1F8
:02005F0007A0F8
:02006000079FF8
:02006100079EF8
:02006200079DF8
:02006300079CF8
:02006400079BF8
:02006500079AF8
:020066000799F8
:020067000798F8
:020068000797F8
:020069000796F8
:02006A000795F8
:02006B000794F8
:02006C000793F8
:02006D000792F8
:02006E000791F8
:02006F000790F8
:02007000078FF8
:02007100078EF8
:02007200078DF8
:02007300078CF8
:02007400078BF8
:02007500078AF8
:020076000789F8
:020077000788F8
:020078000787F8
:020079000786F8
:02007A000785F8
:02007B000784F8
:02007C000783F8
:02007D000782F8
:02007E000781F8
:02007F000780F8
:02008000077FF8
:02008100077EF8
:02008200077DF8
:02008300077CF8
:02008400077BF8
:02008500077AF8
:020086000779F8
:020087000778F8
:020088000777F8
:020089000776F8
:02008A000775F8
:02008B000774F8
:02008C000773F8
:02008D000772F8
:02008E000771F8
:02008F000770F8
:02009000076FF8
:02009100076EF8
:02009200076DF8
:02009300076CF8
:02009400076BF8
:02009500076AF8
:020096000769F8
:020097000768F8
:020098000767F8
:020099000766F8
:02009A000765F8
:02009B000764F8
:02009C000763F8
:02009D000762F8
:02009E000761F8
:02009F000760F8
:0200A000075FF8
:0200A100075EF8
:0200A200075DF8
:0200A300075CF8
:0200A400075BF8
:0200A500075AF8
:0200A6000759F8
:0200A7000758F8
:0200A8000757F8
:0200A9000756F8
:0200AA000755F8
:0200AB000754F8
:0200AC000753F8
:0200AD000752F8
:0200AE000751F8
:0200AF000750F8
:0200B000074FF8
:0200B100074EF8
:0200B200074DF8
:0200B300074CF8
:0200B400074BF8
:0200B500074AF8
:0200B6000749F8
:0200B7000748F8
:0200B8000747F8
:0200B9000746F8
:0200BA000745F8
:0200BB000744F8
:0200BC000743F8
:0200BD000742F8
:0200BE000741F8
:0200BF000740F8
:0200C000073FF8
:0200C100073EF8
:0200C200073DF8
:0200C300073CF8
:0200C400073BF8
:0200C500073AF8
:0200C6000739F8
:0200C7000738F8
:0200C8000737F8
:0200C9000736F8
:0200CA000735F8
:0200CB000734F8
:0200CC000733F8
:0200CD000732F8
:0200CE000731F8
:0200CF000730F8
:0200D000072FF8
:0200D100072EF8
:0200D200072DF8
:0200D300072CF8
:0200D400072BF8
:0200D500072AF8
:0200D6000729F8
:0200D7000728F8
:0200D8000727F8
:0200D9000726F8
:0200DA000725F8
:0200DB000724F8
:0200DC000723F8
:0200DD000722F8
:0200DE000721F8
:0200DF000720F8
:0200E000071FF8
:0200E100071EF8
:0200E200071DF8
:0200E300071CF8
:0200E400071BF8
:0200E500071AF8
:0200E6000719F8
:0200E7000718F8
:0200E8000717F8
:0200E9000716F8
:0200EA000715F8
:0200EB000714F8
:0200EC000713F8
:0200ED000712F8
:0200EE000711F8
:0200EF000710F8
:0200F000070FF8
:0200F100070EF8
:0200F200070DF8
:0200F300070CF8
:0200F400070BF8
:0200F500070AF8
:0200F6000709F8
:0200F7000708F8
:0200F8000707F8
:0200F9000706F8
:0200FA000705F8
:0200FB000704F8
:0200FC000703F8
:0200FD000702F8
:0200FE000701F8
:0200FF000700F8
:0201000006FFF8
:0201010006FEF8
:0201020006FDF8
:0201030006FCF8
:0201040006FBF8
:0201050006FAF8
:0201060006F9F8
:0201070006F8F8
:0201080006F7F8
:0201090006F6F8
:02010A0006F5F8
:02010B0006F4F8
:02010C0006F3F8
:02010D0006F2F8
:02010E0006F1F8
:02010F0006F0F8
:0201100006EFF8
:0201110006EEF8
:0201120006EDF8
:0201130006ECF8
:0201140006EBF8
:0201150006EAF8
:0201160006E9F8
:0201170006E8F8
:0201180006E7F8
:0201190006E6F8
:02011A0006E5F8
:02011B0006E4F8
:02011C0006E3F8
:02011D0006E2F8
:02011E0006E1F8
:02011F0006E0F8
:0201200006DFF8
:0201210006DEF8
:0201220006DDF8
:0201230006DCF8
:0201240006DBF8
:0201250006DAF8
:0201260006D9F8
:0201270006D8F8
:0201280006D7F8
:0201290006D6F8
:02012A0006D5F8
:02012B0006D4F8
:02012C0006D3F8
:02012D0006D2F8
:02012E0006D1F8
:02012F0006D0F8
:0201300006CFF8
:0201310006CEF8
:0201320006CDF8
:0201330006CCF8
:0201340006CBF8
:0201350006CAF8
:0201360006C9F8
:0201370006C8F8
:0201380006C7F8
:0201390006C6F8
:02013A0006C5F8
:02013B0006C4F8
:02013C0006C3F8
:02013D0006C2F8
:02013E0006C1F8
:02013F0006C0F8
:0201400006BFF8
:0201410006BEF8
:0201420006BDF8
:0201430006BCF8
:0201440006BBF8
:0201450006BAF8
:0201460006B9F8
:0201470006B8F8
:0201480006B7F8
:0201490006B6F8
:02014A0006B5F8
:02014B0006B4F8
:02014C0006B3F8
:02014D0006B2F8
:02014E0006B1F8
:02014F0006B0F8
:0201500006AFF8
:0201510006AEF8
:0201520006ADF8
:0201530006ACF8
:0201540006ABF8
:0201550006AAF8
:0201560006A9F8
:0201570006A8F8
:0201580006A7F8
:0201590006A6F8
:02015A0006A5F8
:02015B0006A4F8
:02015C0006A3F8
:02015D0006A2F8
:02015E0006A1F8
:02015F0006A0F8
:02016000069FF8
:02016100069EF8
:02016200069DF8
:02016300069CF8
:02016400069BF8
:02016500069AF8
:020166000699F8
:020167000698F8
:020168000697F8
:020169000696F8
:02016A000695F8
:02016B000694F8
:02016C000693F8
:02016D000692F8
:02016E000691F8
:02016F000690F8
:02017000068FF8
:02017100068EF8
:02017200068DF8
:02017300068CF8
:02017400068BF8
:02017500068AF8
:020176000689F8
:020177000688F8
:020178000687F8
:020179000686F8
:02017A000685F8
:02017B000684F8
:02017C000683F8
:02017D000682F8
:02017E000681F8
:02017F000680F8
:02018000067FF8
:02018100067EF8
:02018200067DF8
:02018300067CF8
:02018400067BF8
:02018500067AF8
:020186000679F8
:020187000678F8
:020188000677F8
:020189000676F8
:02018A000675F8
:02018B000674F8
:02018C000673F8
:02018D000672F8
:02018E000671F8
:02018F000670F8
:02019000066FF8
:02019100066EF8
:02019200066DF8
:02019300066CF8
:02019400066BF8
:02019500066AF8
:020196000669F8
:020197000668F8
:020198000667F8
:020199000666F8
:02019A000665F8
:02019B000664F8
:02019C000663F8
:02019D000662F8
:02019E000661F8
:02019F000660F8
:0201A000065FF8
:0201A100065EF8
:0201A200065DF8
:0201A300065CF8
:0201A400065BF8
:0201A500065AF8
:0201A6000659F8
:0201A7000658F8
:0201A8000657F8
:0201A9000656F8
:0201AA000655F8
:0201AB000654F8
:0201AC000653F8
:0201AD000652F8
:0201AE000651F8
:0201AF000650F8
:0201B000064FF8
:0201B100064EF8
:0201B200064DF8
:0201B300064CF8
:0201B400064BF8
:0201B500064AF8
:0201B6000649F8
:0201B7000648F8
:0201B8000647F8
:0201B9000646F8
:0201BA000645F8
:0201BB000644F8
:0201BC000643F8
:0201BD000642F8
:0201BE000641F8
:0201BF000640F8
:0201C000063FF8
:0201C100063EF8
:0201C200063DF8
:0201C300063CF8
:0201C400063BF8
:0201C500063AF8
:0201C6000639F8
:0201C7000638F8
:0201C8000637F8
:0201C9000636F8
:0201CA000635F8
:0201CB000634F8
:0201CC000633F8
:0201CD000632F8
:0201CE000631F8
:0201CF000630F8
:0201D000062FF8
:0201D100062EF8
:0201D200062DF8
:0201D300062CF8
:0201D400062BF8
:0201D500062AF8
:0201D6000629F8
:0201D7000628F8
:0201D8000627F8
:0201D9000626F8
:0201DA000625F8
:0201DB000624F8
:0201DC000623F8
:0201DD000622F8
:0201DE000621F8
:0201DF000620F8
:0201E000061FF8
:0201E100061EF8
:0201E200061DF8
:0201E300061CF8
:0201E400061BF8
:0201E500061AF8
:0201E6000619F8
:0201E7000618F8
:0201E8000617F8
:0201E9000616F8
:0201EA000615F8
:0201EB000614F8
:0201EC000613F8
:0201ED000612F8
:0201EE000611F8
:0201EF000610F8
:0201F000060FF8
:0201F100060EF8
:0201F200060DF8
:0201F300060CF8
:0201F400060BF8
:0201F500060AF8
:0201F6000609F8
:0201F7000608F8
:0201F8000607F8
:0201F9000606F8
:0201FA000605F8
:0201FB000604F8
:0201FC000603F8
:0201FD000602F8
:0201FE000601F8
:0201FF000600F8
:0202000005FFF8
:0202010005FEF8
:0202020005FDF8
:0202030005FCF8
:0202040005FBF8
:0202050005FAF8
:0202060005F9F8
:0202070005F8F8
:0202080005F7F8
:0202090005F6F8
:02020A0005F5F8
:02020B0005F4F8
:02020C0005F3F8
:02020D0005F2F8
:02020E0005F1F8
:02020F0005F0F8
:0202100005EFF8
:0202110005EEF8
:0202120005EDF8
:0202130005ECF8
:0202140005EBF8
:0202150005EAF8
:0202160005E9F8
:0202170005E8F8
:0202180005E7F8
:0202190005E6F8
:02021A0005E5F8
:02021B0005E4F8
:02021C0005E3F8
:02021D0005E2F8
:02021E0005E1F8
:02021F0005E0F8
:0202200005DFF8
:0202210005DEF8
:0202220005DDF8
:0202230005DCF8
:0202240005DBF8
:0202250005DAF8
:0202260005D9F8
:0202270005D8F8
:0202280005D7F8
:0202290005D6F8
:02022A0005D5F8
:02022B0005D4F8
:02022C0005D3F8
:02022D0005D2F8
:02022E0005D1F8
:02022F0005D0F8
:0202300005CFF8
:0202310005CEF8
:0202320005CDF8
:0202330005CCF8
:0202340005CBF8
:0202350005CAF8
:0202360005C9F8
:0202370005C8F8
:0202380005C7F8
:0202390005C6F8
:02023A0005C5F8
:02023B0005C4F8
:02023C0005C3F8
:02023D0005C2F8
:02023E0005C1F8
:02023F0005C0F8
:0202400005BFF8
:0202410005BEF8
:0202420005BDF8
:0202430005BCF8
:0202440005BBF8
:0202450005BAF8
:0202460005B9F8
:0202470005B8F8
:0202480005B7F8
:0202490005B6F8
:02024A0005B5F8
:02024B0005B4F8
:02024C0005B3F8
:02024D0005B2F8
:02024E0005B1F8
:02024F0005B0F8
:0202500005AFF8
:0202510005AEF8
:0202520005ADF8
:0202530005ACF8
:0202540005ABF8
:0202550005AAF8
:0202560005A9F8
:0202570005A8F8
:0202580005A7F8
:0202590005A6F8
:02025A0005A5F8
:02025B0005A4F8
:02025C0005A3F8
:02025D0005A2F8
:02025E0005A1F8
:02025F0005A0F8
:02026000059FF8
:02026100059EF8
:02026200059DF8
:02026300059CF8
:02026400059BF8
:02026500059AF8
:020266000599F8
:020267000598F8
:020268000597F8
:020269000596F8
:02026A000595F8
:02026B000594F8
:02026C000593F8
:02026D000592F8
:02026E000591F8
:02026F000590F8
:02027000058FF8
:02027100058EF8
:02027200058DF8
:02027300058CF8
:02027400058BF8
:02027500058AF8
:020276000589F8
:020277000588F8
:020278000587F8
:020279000586F8
:02027A000585F8
:02027B000584F8
:02027C000583F8
:02027D000582F8
:02027E000581F8
:02027F000580F8
:02028000057FF8
:02028100057EF8
:02028200057DF8
:02028300057CF8
:02028400057BF8
:02028500057AF8
:020286000579F8
:020287000578F8
:020288000577F8
:020289000576F8
:02028A000575F8
:02028B000574F8
:02028C000573F8
:02028D000572F8
:02028E000571F8
:02028F000570F8
:02029000056FF8
:02029100056EF8
:02029200056DF8
:02029300056CF8
:02029400056BF8
:02029500056AF8
:020296000569F8
:020297000568F8
:020298000567F8
:020299000566F8
:02029A000565F8
:02029B000564F8
:02029C000563F8
:02029D000562F8
:02029E000561F8
:02029F000560F8
:0202A000055FF8
:0202A100055EF8
:0202A200055DF8
:0202A300055CF8
:0202A400055BF8
:0202A500055AF8
:0202A6000559F8
:0202A7000558F8
:0202A8000557F8
:0202A9000556F8
:0202AA000555F8
:0202AB000554F8
:0202AC000553F8
:0202AD000552F8
:0202AE000551F8
:0202AF000550F8
:0202B000054FF8
:0202B100054EF8
:0202B200054DF8
:0202B300054CF8
:0202B400054BF8
:0202B500054AF8
:0202B6000549F8
:0202B7000548F8
:0202B8000547F8
:0202B9000546F8
:0202BA000545F8
:0202BB000544F8
:0202BC000543F8
:0202BD000542F8
:0202BE000541F8
:0202BF000540F8
:0202C000053FF8
:0202C100053EF8
:0202C200053DF8
:0202C300053CF8
:0202C400053BF8
:0202C500053AF8
:0202C6000539F8
:0202C7000538F8
:0202C8000537F8
:0202C9000536F8
:0202CA000535F8
:0202CB000534F8
:0202CC000533F8
:0202CD000532F8
:0202CE000531F8
:0202CF000530F8
:0202D000052FF8
:0202D100052EF8
:0202D200052DF8
:0202D300052CF8
:0202D400052BF8
:0202D500052AF8
:0202D6000529F8
:0202D7000528F8
:0202D8000527F8
:0202D9000526F8
:0202DA000525F8
:0202DB000524F8
:0202DC000523F8
:0202DD000522F8
:0202DE000521F8
:0202DF000520F8
:0202E000051FF8
:0202E100051EF8
:0202E200051DF8
:0202E300051CF8
:0202E400051BF8
:0202E500051AF8
:0202E6000519F8
:0202E7000518F8
:0202E8000517F8
:0202E9000516F8
:0202EA000515F8
:0202EB000514F8
:0202EC000513F8
:0202ED000512F8
:0202EE000511F8
:0202EF000510F8
:0202F000050FF8
:0202F100050EF8
:0202F200050DF8
:0202F300050CF8
:0202F400050BF8
:0202F500050AF8
:0202F6000509F8
:0202F7000508F8
:0202F8000507F8
:0202F9000506F8
:0202FA000505F8
:0202FB000504F8
:0202FC000503F8
:0202FD000502F8
:0202FE000501F8
:0202FF000500F8
:0203000004FFF8
:0203010004FEF8
:0203020004FDF8
:0203030004FCF8
:0203040004FBF8
:0203050004FAF8
:0203060004F9F8
:0203070004F8F8
:0203080004F7F8
:0203090004F6F8
:02030A0004F5F8
:02030B0004F4F8
:02030C0004F3F8
:02030D0004F2F8
:02030E0004F1F8
:02030F0004F0F8
:0203100004EFF8
:0203110004EEF8
:0203120004EDF8
:0203130004ECF8
:0203140004EBF8
:0203150004EAF8
:0203160004E9F8
:0203170004E8F8
:0203180004E7F8
:0203190004E6F8
:02031A0004E5F8
:02031B0004E4F8
:02031C0004E3F8
:02031D0004E2F8
:02031E0004E1F8
:02031F0004E0F8
:0203200004DFF8
:0203210004DEF8
:0203220004DDF8
:0203230004DCF8
:0203240004DBF8
:0203250004DAF8
:0203260004D9F8
:0203270004D8F8
:0203280004D7F8
:0203290004D6F8
:02032A0004D5F8
:02032B0004D4F8
:02032C0004D3F8
:02032D0004D2F8
:02032E0004D1F8
:02032F0004D0F8
:0203300004CFF8
:0203310004CEF8
:0203320004CDF8
:0203330004CCF8
:0203340004CBF8
:0203350004CAF8
:0203360004C9F8
:0203370004C8F8
:0203380004C7F8
:0203390004C6F8
:02033A0004C5F8
:02033B0004C4F8
:02033C0004C3F8
:02033D0004C2F8
:02033E0004C1F8
:02033F0004C0F8
:0203400004BFF8
:0203410004BEF8
:0203420004BDF8
:0203430004BCF8
:0203440004BBF8
:0203450004BAF8
:0203460004B9F8
:0203470004B8F8
:0203480004B7F8
:0203490004B6F8
:02034A0004B5F8
:02034B0004B4F8
:02034C0004B3F8
:02034D0004B2F8
:02034E0004B1F8
:02034F0004B0F8
:0203500004AFF8
:0203510004AEF8
:0203520004ADF8
:0203530004ACF8
:0203540004ABF8
:0203550004AAF8
:0203560004A9F8
:0203570004A8F8
:0203580004A7F8
:0203590004A6F8
:02035A0004A5F8
:02035B0004A4F8
:02035C0004A3F8
:02035D0004A2F8
:02035E0004A1F8
:02035F0004A0F8
:02036000049FF8
:02036100049EF8
:02036200049DF8
:02036300049CF8
:02036400049BF8
:02036500049AF8
:020366000499F8
:020367000498F8
:020368000497F8
:020369000496F8
:02036A000495F8
:02036B000494F8
:02036C000493F8
:02036D000492F8
:02036E000491F8
:02036F000490F8
:02037000048FF8
:02037100048EF8
:02037200048DF8
:02037300048CF8
:02037400048BF8
:02037500048AF8
:020376000489F8
:020377000488F8
:020378000487F8
:020379000486F8
:02037A000485F8
:02037B000484F8
:02037C000483F8
:02037D000482F8
:02037E000481F8
:02037F000480F8
:02038000047FF8
:02038100047EF8
:02038200047DF8
:02038300047CF8
:02038400047BF8
:02038500047AF8
:020386000479F8
:020387000478F8
:020388000477F8
:020389000476F8
:02038A000475F8
:02038B000474F8
:02038C000473F8
:02038D000472F8
:02038E000471F8
:02038F000470F8
:02039000046FF8
:02039100046EF8
:02039200046DF8
:02039300046CF8
:02039400046BF8
:02039500046AF8
:020396000469F8
:020397000468F8
:020398000467F8
:020399000466F8
:02039A000465F8
:02039B000464F8
:02039C000463F8
:02039D000462F8
:02039E000461F8
:02039F000460F8
:0203A000045FF8
:0203A100045EF8
:0203A200045DF8
:0203A300045CF8
:0203A400045BF8
:0203A500045AF8
:0203A6000459F8
:0203A7000458F8
:0203A8000457F8
:0203A9000456F8
:0203AA000455F8
:0203AB000454F8
:0203AC000453F8
:0203AD000452F8
:0203AE000451F8
:0203AF000450F8
:0203B000044FF8
:0203B100044EF8
:0203B200044DF8
:0203B300044CF8
:0203B400044BF8
:0203B500044AF8
:0203B6000449F8
:0203B7000448F8
:0203B8000447F8
:0203B9000446F8
:0203BA000445F8
:0203BB000444F8
:0203BC000443F8
:0203BD000442F8
:0203BE000441F8
:0203BF000440F8
:0203C000043FF8
:0203C100043EF8
:0203C200043DF8
:0203C300043CF8
:0203C400043BF8
:0203C500043AF8
:0203C6000439F8
:0203C7000438F8
:0203C8000437F8
:0203C9000436F8
:0203CA000435F8
:0203CB000434F8
:0203CC000433F8
:0203CD000432F8
:0203CE000431F8
:0203CF000430F8
:0203D000042FF8
:0203D100042EF8
:0203D200042DF8
:0203D300042CF8
:0203D400042BF8
:0203D500042AF8
:0203D6000429F8
:0203D7000428F8
:0203D8000427F8
:0203D9000426F8
:0203DA000425F8
:0203DB000424F8
:0203DC000423F8
:0203DD000422F8
:0203DE000421F8
:0203DF000420F8
:0203E000041FF8
:0203E100041EF8
:0203E200041DF8
:0203E300041CF8
:0203E400041BF8
:0203E500041AF8
:0203E6000419F8
:0203E7000418F8
:0203E8000417F8
:0203E9000416F8
:0203EA000415F8
:0203EB000414F8
:0203EC000413F8
:0203ED000412F8
:0203EE000411F8
:0203EF000410F8
:0203F000040FF8
:0203F100040EF8
:0203F200040DF8
:0203F300040CF8
:0203F400040BF8
:0203F500040AF8
:0203F6000409F8
:0203F7000408F8
:0203F8000407F8
:0203F9000406F8
:0203FA000405F8
:0203FB000404F8
:0203FC000403F8
:0203FD000402F8
:0203FE000401F8
:0203FF000400F8
:0204000003FFF8
:0204010003FEF8
:0204020003FDF8
:0204030003FCF8
:0204040003FBF8
:0204050003FAF8
:0204060003F9F8
:0204070003F8F8
:0204080003F7F8
:0204090003F6F8
:02040A0003F5F8
:02040B0003F4F8
:02040C0003F3F8
:02040D0003F2F8
:02040E0003F1F8
:02040F0003F0F8
:0204100003EFF8
:0204110003EEF8
:0204120003EDF8
:0204130003ECF8
:0204140003EBF8
:0204150003EAF8
:0204160003E9F8
:0204170003E8F8
:0204180003E7F8
:0204190003E6F8
:02041A0003E5F8
:02041B0003E4F8
:02041C0003E3F8
:02041D0003E2F8
:02041E0003E1F8
:02041F0003E0F8
:0204200003DFF8
:0204210003DEF8
:0204220003DDF8
:0204230003DCF8
:0204240003DBF8
:0204250003DAF8
:0204260003D9F8
:0204270003D8F8
:0204280003D7F8
:0204290003D6F8
:02042A0003D5F8
:02042B0003D4F8
:02042C0003D3F8
:02042D0003D2F8
:02042E0003D1F8
:02042F0003D0F8
:0204300003CFF8
:0204310003CEF8
:0204320003CDF8
:0204330003CCF8
:0204340003CBF8
:0204350003CAF8
:0204360003C9F8
:0204370003C8F8
:0204380003C7F8
:0204390003C6F8
:02043A0003C5F8
:02043B0003C4F8
:02043C0003C3F8
:02043D0003C2F8
:02043E0003C1F8
:02043F0003C0F8
:0204400003BFF8
:0204410003BEF8
:0204420003BDF8
:0204430003BCF8
:0204440003BBF8
:0204450003BAF8
:0204460003B9F8
:0204470003B8F8
:0204480003B7F8
:0204490003B6F8
:02044A0003B5F8
:02044B0003B4F8
:02044C0003B3F8
:02044D0003B2F8
:02044E0003B1F8
:02044F0003B0F8
:0204500003AFF8
:0204510003AEF8
:0204520003ADF8
:0204530003ACF8
:0204540003ABF8
:0204550003AAF8
:0204560003A9F8
:0204570003A8F8
:0204580003A7F8
:0204590003A6F8
:02045A0003A5F8
:02045B0003A4F8
:02045C0003A3F8
:02045D0003A2F8
:02045E0003A1F8
:02045F0003A0F8
:02046000039FF8
:02046100039EF8
:02046200039DF8
:02046300039CF8
:02046400039BF8
:02046500039AF8
:020466000399F8
:020467000398F8
:020468000397F8
:020469000396F8
:02046A000395F8
:02046B000394F8
:02046C000393F8
:02046D000392F8
:02046E000391F8
:02046F000390F8
:02047000038FF8
:02047100038EF8
:02047200038DF8
:02047300038CF8
:02047400038BF8
:02047500038AF8
:020476000389F8
:020477000388F8
:020478000387F8
:020479000386F8
:02047A000385F8
:02047B000384F8
:02047C000383F8
:02047D000382F8
:02047E000381F8
:02047F000380F8
:02048000037FF8
:02048100037EF8
:02048200037DF8
:02048300037CF8
:02048400037BF8
:02048500037AF8
:020486000379F8
:020487000378F8
:020488000377F8
:020489000376F8
:02048A000375F8
:02048B000374F8
:02048C000373F8
:02048D000372F8
:02048E000371F8
:02048F000370F8
:02049000036FF8
:02049100036EF8
:02049200036DF8
:02049300036CF8
:02049400036BF8
:02049500036AF8
:020496000369F8
:020497000368F8
:020498000367F8
:020499000366F8
:02049A000365F8
:02049B000364F8
:02049C000363F8
:02049D000362F8
:02049E000361F8
:02049F000360F8
:0204A000035FF8
:0204A100035EF8
:0204A200035DF8
:0204A300035CF8
:0204A400035BF8
:0204A500035AF8
:0204A6000359F8
:0204A7000358F8
:0204A8000357F8
:0204A9000356F8
:0204AA000355F8
:0204AB000354F8
:0204AC000353F8
:0204AD000352F8
:0204AE000351F8
:0204AF000350F8
:0204B000034FF8
:0204B100034EF8
:0204B200034DF8
:0204B300034CF8
:0204B400034BF8
:0204B500034AF8
:0204B6000349F8
:0204B7000348F8
:0204B8000347F8
:0204B9000346F8
:0204BA000345F8
:0204BB000344F8
:0204BC000343F8
:0204BD000342F8
:0204BE000341F8
:0204BF000340F8
:0204C000033FF8
:0204C100033EF8
:0204C200033DF8
:0204C300033CF8
:0204C400033BF8
:0204C500033AF8
:0204C6000339F8
:0204C7000338F8
:0204C8000337F8
:0204C9000336F8
:0204CA000335F8
:0204CB000334F8
:0204CC000333F8
:0204CD000332F8
:0204CE000331F8
:0204CF000330F8
:0204D000032FF8
:0204D100032EF8
:0204D200032DF8
:0204D300032CF8
:0204D400032BF8
:0204D500032AF8
:0204D6000329F8
:0204D7000328F8
:0204D8000327F8
:0204D9000326F8
:0204DA000325F8
:0204DB000324F8
:0204DC000323F8
:0204DD000322F8
:0204DE000321F8
:0204DF000320F8
:0204E000031FF8
:0204E100031EF8
:0204E200031DF8
:0204E300031CF8
:0204E400031BF8
:0204E500031AF8
:0204E6000319F8
:0204E7000318F8
:0204E8000317F8
:0204E9000316F8
:0204EA000315F8
:0204EB000314F8
:0204EC000313F8
:0204ED000312F8
:0204EE000311F8
:0204EF000310F8
:0204F000030FF8
:0204F100030EF8
:0204F200030DF8
:0204F300030CF8
:0204F400030BF8
:0204F500030AF8
:0204F6000309F8
:0204F7000308F8
:0204F8000307F8
:0204F9000306F8
:0204FA000305F8
:0204FB000304F8
:0204FC000303F8
:0204FD000302F8
:0204FE000301F8
:0204FF000300F8
:0205000002FFF8
:0205010002FEF8
:0205020002FDF8
:0205030002FCF8
:0205040002FBF8
:0205050002FAF8
:0205060002F9F8
:0205070002F8F8
:0205080002F7F8
:0205090002F6F8
:02050A0002F5F8
:02050B0002F4F8
:02050C0002F3F8
:02050D0002F2F8
:02050E0002F1F8
:02050F0002F0F8
:0205100002EFF8
:0205110002EEF8
:0205120002EDF8
:0205130002ECF8
:0205140002EBF8
:0205150002EAF8
:0205160002E9F8
:0205170002E8F8
:0205180002E7F8
:0205190002E6F8
:02051A0002E5F8
:02051B0002E4F8
:02051C0002E3F8
:02051D0002E2F8
:02051E0002E1F8
:02051F0002E0F8
:0205200002DFF8
:0205210002DEF8
:0205220002DDF8
:0205230002DCF8
:0205240002DBF8
:0205250002DAF8
:0205260002D9F8
:0205270002D8F8
:0205280002D7F8
:0205290002D6F8
:02052A0002D5F8
:02052B0002D4F8
:02052C0002D3F8
:02052D0002D2F8
:02052E0002D1F8
:02052F0002D0F8
:0205300002CFF8
:0205310002CEF8
:0205320002CDF8
:0205330002CCF8
:0205340002CBF8
:0205350002CAF8
:0205360002C9F8
:0205370002C8F8
:0205380002C7F8
:0205390002C6F8
:02053A0002C5F8
:02053B0002C4F8
:02053C0002C3F8
:02053D0002C2F8
:02053E0002C1F8
:02053F0002C0F8
:0205400002BFF8
:0205410002BEF8
:0205420002BDF8
:0205430002BCF8
:0205440002BBF8
:0205450002BAF8
:0205460002B9F8
:0205470002B8F8
:0205480002B7F8
:0205490002B6F8
:02054A0002B5F8
:02054B0002B4F8
:02054C0002B3F8
:02054D0002B2F8
:02054E0002B1F8
:02054F0002B0F8
:0205500002AFF8
:0205510002AEF8
:0205520002ADF8
:0205530002ACF8
:0205540002ABF8
:0205550002AAF8
:0205560002A9F8
:0205570002A8F8
:0205580002A7F8
:0205590002A6F8
:02055A0002A5F8
:02055B0002A4F8
:02055C0002A3F8
:02055D0002A2F8
:02055E0002A1F8
:02055F0002A0F8
:02056000029FF8
:02056100029EF8
:02056200029DF8
:02056300029CF8
:02056400029BF8
:02056500029AF8
:020566000299F8
:020567000298F8
:020568000297F8
:020569000296F8
:02056A000295F8
:02056B000294F8
:02056C000293F8
:02056D000292F8
:02056E000291F8
:02056F000290F8
:02057000028FF8
:02057100028EF8
:02057200028DF8
:02057300028CF8
:02057400028BF8
:02057500028AF8
:020576000289F8
:020577000288F8
:020578000287F8
:020579000286F8
:02057A000285F8
:02057B000284F8
:02057C000283F8
:02057D000282F8
:02057E000281F8
:02057F000280F8
:02058000027FF8
:02058100027EF8
:02058200027DF8
:02058300027CF8
:02058400027BF8
:02058500027AF8
:020586000279F8
:020587000278F8
:020588000277F8
:020589000276F8
:02058A000275F8
:02058B000274F8
:02058C000273F8
:02058D000272F8
:02058E000271F8
:02058F000270F8
:02059000026FF8
:02059100026EF8
:02059200026DF8
:02059300026CF8
:02059400026BF8
:02059500026AF8
:020596000269F8
:020597000268F8
:020598000267F8
:020599000266F8
:02059A000265F8
:02059B000264F8
:02059C000263F8
:02059D000262F8
:02059E000261F8
:02059F000260F8
:0205A000025FF8
:0205A100025EF8
:0205A200025DF8
:0205A300025CF8
:0205A400025BF8
:0205A500025AF8
:0205A6000259F8
:0205A7000258F8
:0205A8000257F8
:0205A9000256F8
:0205AA000255F8
:0205AB000254F8
:0205AC000253F8
:0205AD000252F8
:0205AE000251F8
:0205AF000250F8
:0205B000024FF8
:0205B100024EF8
:0205B200024DF8
:0205B300024CF8
:0205B400024BF8
:0205B500024AF8
:0205B6000249F8
:0205B7000248F8
:0205B8000247F8
:0205B9000246F8
:0205BA000245F8
:0205BB000244F8
:0205BC000243F8
:0205BD000242F8
:0205BE000241F8
:0205BF000240F8
:0205C000023FF8
:0205C100023EF8
:0205C200023DF8
:0205C300023CF8
:0205C400023BF8
:0205C500023AF8
:0205C6000239F8
:0205C7000238F8
:0205C8000237F8
:0205C9000236F8
:0205CA000235F8
:0205CB000234F8
:0205CC000233F8
:0205CD000232F8
:0205CE000231F8
:0205CF000230F8
:0205D000022FF8
:0205D100022EF8
:0205D200022DF8
:0205D300022CF8
:0205D400022BF8
:0205D500022AF8
:0205D6000229F8
:0205D7000228F8
:0205D8000227F8
:0205D9000226F8
:0205DA000225F8
:0205DB000224F8
:0205DC000223F8
:0205DD000222F8
:0205DE000221F8
:0205DF000220F8
:0205E000021FF8
:0205E100021EF8
:0205E200021DF8
:0205E300021CF8
:0205E400021BF8
:0205E500021AF8
:0205E6000219F8
:0205E7000218F8
:0205E8000217F8
:0205E9000216F8
:0205EA000215F8
:0205EB000214F8
:0205EC000213F8
:0205ED000212F8
:0205EE000211F8
:0205EF000210F8
:0205F000020FF8
:0205F100020EF8
:0205F200020DF8
:0205F300020CF8
:0205F400020BF8
:0205F500020AF8
:0205F6000209F8
:0205F7000208F8
:0205F8000207F8
:0205F9000206F8
:0205FA000205F8
:0205FB000204F8
:0205FC000203F8
:0205FD000202F8
:0205FE000201F8
:0205FF000200F8
:0206000001FFF8
:0206010001FEF8
:0206020001FDF8
:0206030001FCF8
:0206040001FBF8
:0206050001FAF8
:0206060001F9F8
:0206070001F8F8
:0206080001F7F8
:0206090001F6F8
:02060A0001F5F8
:02060B0001F4F8
:02060C0001F3F8
:02060D0001F2F8
:02060E0001F1F8
:02060F0001F0F8
:0206100001EFF8
:0206110001EEF8
:0206120001EDF8
:0206130001ECF8
:0206140001EBF8
:0206150001EAF8
:0206160001E9F8
:0206170001E8F8
:0206180001E7F8
:0206190001E6F8
:02061A0001E5F8
:02061B0001E4F8
:02061C0001E3F8
:02061D0001E2F8
:02061E0001E1F8
:02061F0001E0F8
:0206200001DFF8
:0206210001DEF8
:0206220001DDF8
:0206230001DCF8
:0206240001DBF8
:0206250001DAF8
:0206260001D9F8
:0206270001D8F8
:0206280001D7F8
:0206290001D6F8
:02062A0001D5F8
:02062B0001D4F8
:02062C0001D3F8
:02062D0001D2F8
:02062E0001D1F8
:02062F0001D0F8
:0206300001CFF8
:0206310001CEF8
:0206320001CDF8
:0206330001CCF8
:0206340001CBF8
:0206350001CAF8
:0206360001C9F8
:0206370001C8F8
:0206380001C7F8
:0206390001C6F8
:02063A0001C5F8
:02063B0001C4F8
:02063C0001C3F8
:02063D0001C2F8
:02063E0001C1F8
:02063F0001C0F8
:0206400001BFF8
:0206410001BEF8
:0206420001BDF8
:0206430001BCF8
:0206440001BBF8
:0206450001BAF8
:0206460001B9F8
:0206470001B8F8
:0206480001B7F8
:0206490001B6F8
:02064A0001B5F8
:02064B0001B4F8
:02064C0001B3F8
:02064D0001B2F8
:02064E0001B1F8
:02064F0001B0F8
:0206500001AFF8
:0206510001AEF8
:0206520001ADF8
:0206530001ACF8
:0206540001ABF8
:0206550001AAF8
:0206560001A9F8
:0206570001A8F8
:0206580001A7F8
:0206590001A6F8
:02065A0001A5F8
:02065B0001A4F8
:02065C0001A3F8
:02065D0001A2F8
:02065E0001A1F8
:02065F0001A0F8
:02066000019FF8
:02066100019EF8
:02066200019DF8
:02066300019CF8
:02066400019BF8
:02066500019AF8
:020666000199F8
:020667000198F8
:020668000197F8
:020669000196F8
:02066A000195F8
:02066B000194F8
:02066C000193F8
:02066D000192F8
:02066E000191F8
:02066F000190F8
:02067000018FF8
:02067100018EF8
:02067200018DF8
:02067300018CF8
:02067400018BF8
:02067500018AF8
:020676000189F8
:020677000188F8
:020678000187F8
:020679000186F8
:02067A000185F8
:02067B000184F8
:02067C000183F8
:02067D000182F8
:02067E000181F8
:02067F000180F8
:02068000017FF8
:02068100017EF8
:02068200017DF8
:02068300017CF8
:02068400017BF8
:02068500017AF8
:020686000179F8
:020687000178F8
:020688000177F8
:020689000176F8
:02068A000175F8
:02068B000174F8
:02068C000173F8
:02068D000172F8
:02068E000171F8
:02068F000170F8
:02069000016FF8
:02069100016EF8
:02069200016DF8
:02069300016CF8
:02069400016BF8
:02069500016AF8
:020696000169F8
:020697000168F8
:020698000167F8
:020699000166F8
:02069A000165F8
:02069B000164F8
:02069C000163F8
:02069D000162F8
:02069E000161F8
:02069F000160F8
:0206A000015FF8
:0206A100015EF8
:0206A200015DF8
:0206A300015CF8
:0206A400015BF8
:0206A500015AF8
:0206A6000159F8
:0206A7000158F8
:0206A8000157F8
:0206A9000156F8
:0206AA000155F8
:0206AB000154F8
:0206AC000153F8
:0206AD000152F8
:0206AE000151F8
:0206AF000150F8
:0206B000014FF8
:0206B100014EF8
:0206B200014DF8
:0206B300014CF8
:0206B400014BF8
:0206B500014AF8
:0206B6000149F8
:0206B7000148F8
:0206B8000147F8
:0206B9000146F8
:0206BA000145F8
:0206BB000144F8
:0206BC000143F8
:0206BD000142F8
:0206BE000141F8
:0206BF000140F8
:0206C000013FF8
:0206C100013EF8
:0206C200013DF8
:0206C300013CF8
:0206C400013BF8
:0206C500013AF8
:0206C6000139F8
:0206C7000138F8
:0206C8000137F8
:0206C9000136F8
:0206CA000135F8
:0206CB000134F8
:0206CC000133F8
:0206CD000132F8
:0206CE000131F8
:0206CF000130F8
:0206D000012FF8
:0206D100012EF8
:0206D200012DF8
:0206D300012CF8
:0206D400012BF8
:0206D500012AF8
:0206D6000129F8
:0206D7000128F8
:0206D8000127F8
:0206D9000126F8
:0206DA000125F8
:0206DB000124F8
:0206DC000123F8
:0206DD000122F8
:0206DE000121F8
:0206DF000120F8
:0206E000011FF8
:0206E100011EF8
:0206E200011DF8
:0206E300011CF8
:0206E400011BF8
:0206E500011AF8
:0206E6000119F8
:0206E7000118F8
:0206E8000117F8
:0206E9000116F8
:0206EA000115F8
:0206EB000114F8
:0206EC000113F8
:0206ED000112F8
:0206EE000111F8
:0206EF000110F8
:0206F000010FF8
:0206F100010EF8
:0206F200010DF8
:0206F300010CF8
:0206F400010BF8
:0206F500010AF8
:0206F6000109F8
:0206F7000108F8
:0206F8000107F8
:0206F9000106F8
:0206FA000105F8
:0206FB000104F8
:0206FC000103F8
:0206FD000102F8
:0206FE000101F8
:0206FF000100F8
:0207000000FFF8
:0207010000FEF8
:0207020000FDF8
:0207030000FCF8
:0207040000FBF8
:0207050000FAF8
:0207060000F9F8
:0207070000F8F8
:0207080000F7F8
:0207090000F6F8
:02070A0000F5F8
:02070B0000F4F8
:02070C0000F3F8
:02070D0000F2F8
:02070E0000F1F8
:02070F0000F0F8
:0207100000EFF8
:0207110000EEF8
:0207120000EDF8
:0207130000ECF8
:0207140000EBF8
:0207150000EAF8
:0207160000E9F8
:0207170000E8F8
:0207180000E7F8
:0207190000E6F8
:02071A0000E5F8
:02071B0000E4F8
:02071C0000E3F8
:02071D0000E2F8
:02071E0000E1F8
:02071F0000E0F8
:0207200000DFF8
:0207210000DEF8
:0207220000DDF8
:0207230000DCF8
:0207240000DBF8
:0207250000DAF8
:0207260000D9F8
:0207270000D8F8
:0207280000D7F8
:0207290000D6F8
:02072A0000D5F8
:02072B0000D4F8
:02072C0000D3F8
:02072D0000D2F8
:02072E0000D1F8
:02072F0000D0F8
:0207300000CFF8
:0207310000CEF8
:0207320000CDF8
:0207330000CCF8
:0207340000CBF8
:0207350000CAF8
:0207360000C9F8
:0207370000C8F8
:0207380000C7F8
:0207390000C6F8
:02073A0000C5F8
:02073B0000C4F8
:02073C0000C3F8
:02073D0000C2F8
:02073E0000C1F8
:02073F0000C0F8
:0207400000BFF8
:0207410000BEF8
:0207420000BDF8
:0207430000BCF8
:0207440000BBF8
:0207450000BAF8
:0207460000B9F8
:0207470000B8F8
:0207480000B7F8
:0207490000B6F8
:02074A0000B5F8
:02074B0000B4F8
:02074C0000B3F8
:02074D0000B2F8
:02074E0000B1F8
:02074F0000B0F8
:0207500000AFF8
:0207510000AEF8
:0207520000ADF8
:0207530000ACF8
:0207540000ABF8
:0207550000AAF8
:0207560000A9F8
:0207570000A8F8
:0207580000A7F8
:0207590000A6F8
:02075A0000A5F8
:02075B0000A4F8
:02075C0000A3F8
:02075D0000A2F8
:02075E0000A1F8
:02075F0000A0F8
:02076000009FF8
:02076100009EF8
:02076200009DF8
:02076300009CF8
:02076400009BF8
:02076500009AF8
:020766000099F8
:020767000098F8
:020768000097F8
:020769000096F8
:02076A000095F8
:02076B000094F8
:02076C000093F8
:02076D000092F8
:02076E000091F8
:02076F000090F8
:02077000008FF8
:02077100008EF8
:02077200008DF8
:02077300008CF8
:02077400008BF8
:02077500008AF8
:020776000089F8
:020777000088F8
:020778000087F8
:020779000086F8
:02077A000085F8
:02077B000084F8
:02077C000083F8
:02077D000082F8
:02077E000081F8
:02077F000080F8
:02078000007FF8
:02078100007EF8
:02078200007DF8
:02078300007CF8
:02078400007BF8
:02078500007AF8
:020786000079F8
:020787000078F8
:020788000077F8
:020789000076F8
:02078A000075F8
:02078B000074F8
:02078C000073F8
:02078D000072F8
:02078E000071F8
:02078F000070F8
:02079000006FF8
:02079100006EF8
:02079200006DF8
:02079300006CF8
:02079400006BF8
:02079500006AF8
:020796000069F8
:020797000068F8
:020798000067F8
:020799000066F8
:02079A000065F8
:02079B000064F8
:02079C000063F8
:02079D000062F8
:02079E000061F8
:02079F000060F8
:0207A000005FF8
:0207A100005EF8
:0207A200005DF8
:0207A300005CF8
:0207A400005BF8
:0207A500005AF8
:0207A6000059F8
:0207A7000058F8
:0207A8000057F8
:0207A9000056F8
:0207AA000055F8
:0207AB000054F8
:0207AC000053F8
:0207AD000052F8
:0207AE000051F8
:0207AF000050F8
:0207B000004FF8
:0207B100004EF8
:0207B200004DF8
:0207B300004CF8
:0207B400004BF8
:0207B500004AF8
:0207B6000049F8
:0207B7000048F8
:0207B8000047F8
:0207B9000046F8
:0207BA000045F8
:0207BB000044F8
:0207BC000043F8
:0207BD000042F8
:0207BE000041F8
:0207BF000040F8
:0207C000003FF8
:0207C100003EF8
:0207C200003DF8
:0207C300003CF8
:0207C400003BF8
:0207C500003AF8
:0207C6000039F8
:0207C7000038F8
:0207C8000037F8
:0207C9000036F8
:0207CA000035F8
:0207CB000034F8
:0207CC000033F8
:0207CD000032F8
:0207CE000031F8
:0207CF000030F8
:0207D000002FF8
:0207D100002EF8
:0207D200002DF8
:0207D300002CF8
:0207D400002BF8
:0207D500002AF8
:0207D6000029F8
:0207D7000028F8
:0207D8000027F8
:0207D9000026F8
:0207DA000025F8
:0207DB000024F8
:0207DC000023F8
:0207DD000022F8
:0207DE000021F8
:0207DF000020F8
:0207E000001FF8
:0207E100001EF8
:0207E200001DF8
:0207E300001CF8
:0207E400001BF8
:0207E500001AF8
:0207E6000019F8
:0207E7000018F8
:0207E8000017F8
:0207E9000016F8
:0207EA000015F8
:0207EB000014F8
:0207EC000013F8
:0207ED000012F8
:0207EE000011F8
:0207EF000010F8
:0207F000000FF8
:0207F100000EF8
:0207F200000DF8
:0207F300000CF8
:0207F400000BF8
:0207F500000AF8
:0207F6000009F8
:0207F7000008F8
:0207F8000007F8
:0207F9000006F8
:0207FA000005F8
:0207FB000004F8
:0207FC000003F8
:0207FD000002F8
:0207FE000001F8
:0207FF000000F8
:020800000FFFE8
:020801000FFEE8
:020802000FFDE8
:020803000FFCE8
:020804000FFBE8
:020805000FFAE8
:020806000FF9E8
:020807000FF8E8
:020808000FF7E8
:020809000FF6E8
:02080A000FF5E8
:02080B000FF4E8
:02080C000FF3E8
:02080D000FF2E8
:02080E000FF1E8
:02080F000FF0E8
:020810000FEFE8
:020811000FEEE8
:020812000FEDE8
:020813000FECE8
:020814000FEBE8
:020815000FEAE8
:020816000FE9E8
:020817000FE8E8
:020818000FE7E8
:020819000FE6E8
:02081A000FE5E8
:02081B000FE4E8
:02081C000FE3E8
:02081D000FE2E8
:02081E000FE1E8
:02081F000FE0E8
:020820000FDFE8
:020821000FDEE8
:020822000FDDE8
:020823000FDCE8
:020824000FDBE8
:020825000FDAE8
:020826000FD9E8
:020827000FD8E8
:020828000FD7E8
:020829000FD6E8
:02082A000FD5E8
:02082B000FD4E8
:02082C000FD3E8
:02082D000FD2E8
:02082E000FD1E8
:02082F000FD0E8
:020830000FCFE8
:020831000FCEE8
:020832000FCDE8
:020833000FCCE8
:020834000FCBE8
:020835000FCAE8
:020836000FC9E8
:020837000FC8E8
:020838000FC7E8
:020839000FC6E8
:02083A000FC5E8
:02083B000FC4E8
:02083C000FC3E8
:02083D000FC2E8
:02083E000FC1E8
:02083F000FC0E8
:020840000FBFE8
:020841000FBEE8
:020842000FBDE8
:020843000FBCE8
:020844000FBBE8
:020845000FBAE8
:020846000FB9E8
:020847000FB8E8
:020848000FB7E8
:020849000FB6E8
:02084A000FB5E8
:02084B000FB4E8
:02084C000FB3E8
:02084D000FB2E8
:02084E000FB1E8
:02084F000FB0E8
:020850000FAFE8
:020851000FAEE8
:020852000FADE8
:020853000FACE8
:020854000FABE8
:020855000FAAE8
:020856000FA9E8
:020857000FA8E8
:020858000FA7E8
:020859000FA6E8
:02085A000FA5E8
:02085B000FA4E8
:02085C000FA3E8
:02085D000FA2E8
:02085E000FA1E8
:02085F000FA0E8
:020860000F9FE8
:020861000F9EE8
:020862000F9DE8
:020863000F9CE8
:020864000F9BE8
:020865000F9AE8
:020866000F99E8
:020867000F98E8
:020868000F97E8
:020869000F96E8
:02086A000F95E8
:02086B000F94E8
:02086C000F93E8
:02086D000F92E8
:02086E000F91E8
:02086F000F90E8
:020870000F8FE8
:020871000F8EE8
:020872000F8DE8
:020873000F8CE8
:020874000F8BE8
:020875000F8AE8
:020876000F89E8
:020877000F88E8
:020878000F87E8
:020879000F86E8
:02087A000F85E8
:02087B000F84E8
:02087C000F83E8
:02087D000F82E8
:02087E000F81E8
:02087F000F80E8
:020880000F7FE8
:020881000F7EE8
:020882000F7DE8
:020883000F7CE8
:020884000F7BE8
:020885000F7AE8
:020886000F79E8
:020887000F78E8
:020888000F77E8
:020889000F76E8
:02088A000F75E8
:02088B000F74E8
:02088C000F73E8
:02088D000F72E8
:02088E000F71E8
:02088F000F70E8
:020890000F6FE8
:020891000F6EE8
:020892000F6DE8
:020893000F6CE8
:020894000F6BE8
:020895000F6AE8
:020896000F69E8
:020897000F68E8
:020898000F67E8
:020899000F66E8
:02089A000F65E8
:02089B000F64E8
:02089C000F63E8
:02089D000F62E8
:02089E000F61E8
:02089F000F60E8
:0208A0000F5FE8
:0208A1000F5EE8
:0208A2000F5DE8
:0208A3000F5CE8
:0208A4000F5BE8
:0208A5000F5AE8
:0208A6000F59E8
:0208A7000F58E8
:0208A8000F57E8
:0208A9000F56E8
:0208AA000F55E8
:0208AB000F54E8
:0208AC000F53E8
:0208AD000F52E8
:0208AE000F51E8
:0208AF000F50E8
:0208B0000F4FE8
:0208B1000F4EE8
:0208B2000F4DE8
:0208B3000F4CE8
:0208B4000F4BE8
:0208B5000F4AE8
:0208B6000F49E8
:0208B7000F48E8
:0208B8000F47E8
:0208B9000F46E8
:0208BA000F45E8
:0208BB000F44E8
:0208BC000F43E8
:0208BD000F42E8
:0208BE000F41E8
:0208BF000F40E8
:0208C0000F3FE8
:0208C1000F3EE8
:0208C2000F3DE8
:0208C3000F3CE8
:0208C4000F3BE8
:0208C5000F3AE8
:0208C6000F39E8
:0208C7000F38E8
:0208C8000F37E8
:0208C9000F36E8
:0208CA000F35E8
:0208CB000F34E8
:0208CC000F33E8
:0208CD000F32E8
:0208CE000F31E8
:0208CF000F30E8
:0208D0000F2FE8
:0208D1000F2EE8
:0208D2000F2DE8
:0208D3000F2CE8
:0208D4000F2BE8
:0208D5000F2AE8
:0208D6000F29E8
:0208D7000F28E8
:0208D8000F27E8
:0208D9000F26E8
:0208DA000F25E8
:0208DB000F24E8
:0208DC000F23E8
:0208DD000F22E8
:0208DE000F21E8
:0208DF000F20E8
:0208E0000F1FE8
:0208E1000F1EE8
:0208E2000F1DE8
:0208E3000F1CE8
:0208E4000F1BE8
:0208E5000F1AE8
:0208E6000F19E8
:0208E7000F18E8
:0208E8000F17E8
:0208E9000F16E8
:0208EA000F15E8
:0208EB000F14E8
:0208EC000F13E8
:0208ED000F12E8
:0208EE000F11E8
:0208EF000F10E8
:0208F0000F0FE8
:0208F1000F0EE8
:0208F2000F0DE8
:0208F3000F0CE8
:0208F4000F0BE8
:0208F5000F0AE8
:0208F6000F09E8
:0208F7000F08E8
:0208F8000F07E8
:0208F9000F06E8
:0208FA000F05E8
:0208FB000F04E8
:0208FC000F03E8
:0208FD000F02E8
:0208FE000F01E8
:0208FF000F00E8
:020900000EFFE8
:020901000EFEE8
:020902000EFDE8
:020903000EFCE8
:020904000EFBE8
:020905000EFAE8
:020906000EF9E8
:020907000EF8E8
:020908000EF7E8
:020909000EF6E8
:02090A000EF5E8
:02090B000EF4E8
:02090C000EF3E8
:02090D000EF2E8
:02090E000EF1E8
:02090F000EF0E8
:020910000EEFE8
:020911000EEEE8
:020912000EEDE8
:020913000EECE8
:020914000EEBE8
:020915000EEAE8
:020916000EE9E8
:020917000EE8E8
:020918000EE7E8
:020919000EE6E8
:02091A000EE5E8
:02091B000EE4E8
:02091C000EE3E8
:02091D000EE2E8
:02091E000EE1E8
:02091F000EE0E8
:020920000EDFE8
:020921000EDEE8
:020922000EDDE8
:020923000EDCE8
:020924000EDBE8
:020925000EDAE8
:020926000ED9E8
:020927000ED8E8
:020928000ED7E8
:020929000ED6E8
:02092A000ED5E8
:02092B000ED4E8
:02092C000ED3E8
:02092D000ED2E8
:02092E000ED1E8
:02092F000ED0E8
:020930000ECFE8
:020931000ECEE8
:020932000ECDE8
:020933000ECCE8
:020934000ECBE8
:020935000ECAE8
:020936000EC9E8
:020937000EC8E8
:020938000EC7E8
:020939000EC6E8
:02093A000EC5E8
:02093B000EC4E8
:02093C000EC3E8
:02093D000EC2E8
:02093E000EC1E8
:02093F000EC0E8
:020940000EBFE8
:020941000EBEE8
:020942000EBDE8
:020943000EBCE8
:020944000EBBE8
:020945000EBAE8
:020946000EB9E8
:020947000EB8E8
:020948000EB7E8
:020949000EB6E8
:02094A000EB5E8
:02094B000EB4E8
:02094C000EB3E8
:02094D000EB2E8
:02094E000EB1E8
:02094F000EB0E8
:020950000EAFE8
:020951000EAEE8
:020952000EADE8
:020953000EACE8
:020954000EABE8
:020955000EAAE8
:020956000EA9E8
:020957000EA8E8
:020958000EA7E8
:020959000EA6E8
:02095A000EA5E8
:02095B000EA4E8
:02095C000EA3E8
:02095D000EA2E8
:02095E000EA1E8
:02095F000EA0E8
:020960000E9FE8
:020961000E9EE8
:020962000E9DE8
:020963000E9CE8
:020964000E9BE8
:020965000E9AE8
:020966000E99E8
:020967000E98E8
:020968000E97E8
:020969000E96E8
:02096A000E95E8
:02096B000E94E8
:02096C000E93E8
:02096D000E92E8
:02096E000E91E8
:02096F000E90E8
:020970000E8FE8
:020971000E8EE8
:020972000E8DE8
:020973000E8CE8
:020974000E8BE8
:020975000E8AE8
:020976000E89E8
:020977000E88E8
:020978000E87E8
:020979000E86E8
:02097A000E85E8
:02097B000E84E8
:02097C000E83E8
:02097D000E82E8
:02097E000E81E8
:02097F000E80E8
:020980000E7FE8
:020981000E7EE8
:020982000E7DE8
:020983000E7CE8
:020984000E7BE8
:020985000E7AE8
:020986000E79E8
:020987000E78E8
:020988000E77E8
:020989000E76E8
:02098A000E75E8
:02098B000E74E8
:02098C000E73E8
:02098D000E72E8
:02098E000E71E8
:02098F000E70E8
:020990000E6FE8
:020991000E6EE8
:020992000E6DE8
:020993000E6CE8
:020994000E6BE8
:020995000E6AE8
:020996000E69E8
:020997000E68E8
:020998000E67E8
:020999000E66E8
:02099A000E65E8
:02099B000E64E8
:02099C000E63E8
:02099D000E62E8
:02099E000E61E8
:02099F000E60E8
:0209A0000E5FE8
:0209A1000E5EE8
:0209A2000E5DE8
:0209A3000E5CE8
:0209A4000E5BE8
:0209A5000E5AE8
:0209A6000E59E8
:0209A7000E58E8
:0209A8000E57E8
:0209A9000E56E8
:0209AA000E55E8
:0209AB000E54E8
:0209AC000E53E8
:0209AD000E52E8
:0209AE000E51E8
:0209AF000E50E8
:0209B0000E4FE8
:0209B1000E4EE8
:0209B2000E4DE8
:0209B3000E4CE8
:0209B4000E4BE8
:0209B5000E4AE8
:0209B6000E49E8
:0209B7000E48E8
:0209B8000E47E8
:0209B9000E46E8
:0209BA000E45E8
:0209BB000E44E8
:0209BC000E43E8
:0209BD000E42E8
:0209BE000E41E8
:0209BF000E40E8
:0209C0000E3FE8
:0209C1000E3EE8
:0209C2000E3DE8
:0209C3000E3CE8
:0209C4000E3BE8
:0209C5000E3AE8
:0209C6000E39E8
:0209C7000E38E8
:0209C8000E37E8
:0209C9000E36E8
:0209CA000E35E8
:0209CB000E34E8
:0209CC000E33E8
:0209CD000E32E8
:0209CE000E31E8
:0209CF000E30E8
:0209D0000E2FE8
:0209D1000E2EE8
:0209D2000E2DE8
:0209D3000E2CE8
:0209D4000E2BE8
:0209D5000E2AE8
:0209D6000E29E8
:0209D7000E28E8
:0209D8000E27E8
:0209D9000E26E8
:0209DA000E25E8
:0209DB000E24E8
:0209DC000E23E8
:0209DD000E22E8
:0209DE000E21E8
:0209DF000E20E8
:0209E0000E1FE8
:0209E1000E1EE8
:0209E2000E1DE8
:0209E3000E1CE8
:0209E4000E1BE8
:0209E5000E1AE8
:0209E6000E19E8
:0209E7000E18E8
:0209E8000E17E8
:0209E9000E16E8
:0209EA000E15E8
:0209EB000E14E8
:0209EC000E13E8
:0209ED000E12E8
:0209EE000E11E8
:0209EF000E10E8
:0209F0000E0FE8
:0209F1000E0EE8
:0209F2000E0DE8
:0209F3000E0CE8
:0209F4000E0BE8
:0209F5000E0AE8
:0209F6000E09E8
:0209F7000E08E8
:0209F8000E07E8
:0209F9000E06E8
:0209FA000E05E8
:0209FB000E04E8
:0209FC000E03E8
:0209FD000E02E8
:0209FE000E01E8
:0209FF000E00E8
:020A00000DFFE8
:020A01000DFEE8
:020A02000DFDE8
:020A03000DFCE8
:020A04000DFBE8
:020A05000DFAE8
:020A06000DF9E8
:020A07000DF8E8
:020A08000DF7E8
:020A09000DF6E8
:020A0A000DF5E8
:020A0B000DF4E8
:020A0C000DF3E8
:020A0D000DF2E8
:020A0E000DF1E8
:020A0F000DF0E8
:020A10000DEFE8
:020A11000DEEE8
:020A12000DEDE8
:020A13000DECE8
:020A14000DEBE8
:020A15000DEAE8
:020A16000DE9E8
:020A17000DE8E8
:020A18000DE7E8
:020A19000DE6E8
:020A1A000DE5E8
:020A1B000DE4E8
:020A1C000DE3E8
:020A1D000DE2E8
:020A1E000DE1E8
:020A1F000DE0E8
:020A20000DDFE8
:020A21000DDEE8
:020A22000DDDE8
:020A23000DDCE8
:020A24000DDBE8
:020A25000DDAE8
:020A26000DD9E8
:020A27000DD8E8
:020A28000DD7E8
:020A29000DD6E8
:020A2A000DD5E8
:020A2B000DD4E8
:020A2C000DD3E8
:020A2D000DD2E8
:020A2E000DD1E8
:020A2F000DD0E8
:020A30000DCFE8
:020A31000DCEE8
:020A32000DCDE8
:020A33000DCCE8
:020A34000DCBE8
:020A35000DCAE8
:020A36000DC9E8
:020A37000DC8E8
:020A38000DC7E8
:020A39000DC6E8
:020A3A000DC5E8
:020A3B000DC4E8
:020A3C000DC3E8
:020A3D000DC2E8
:020A3E000DC1E8
:020A3F000DC0E8
:020A40000DBFE8
:020A41000DBEE8
:020A42000DBDE8
:020A43000DBCE8
:020A44000DBBE8
:020A45000DBAE8
:020A46000DB9E8
:020A47000DB8E8
:020A48000DB7E8
:020A49000DB6E8
:020A4A000DB5E8
:020A4B000DB4E8
:020A4C000DB3E8
:020A4D000DB2E8
:020A4E000DB1E8
:020A4F000DB0E8
:020A50000DAFE8
:020A51000DAEE8
:020A52000DADE8
:020A53000DACE8
:020A54000DABE8
:020A55000DAAE8
:020A56000DA9E8
:020A57000DA8E8
:020A58000DA7E8
:020A59000DA6E8
:020A5A000DA5E8
:020A5B000DA4E8
:020A5C000DA3E8
:020A5D000DA2E8
:020A5E000DA1E8
:020A5F000DA0E8
:020A60000D9FE8
:020A61000D9EE8
:020A62000D9DE8
:020A63000D9CE8
:020A64000D9BE8
:020A65000D9AE8
:020A66000D99E8
:020A67000D98E8
:020A68000D97E8
:020A69000D96E8
:020A6A000D95E8
:020A6B000D94E8
:020A6C000D93E8
:020A6D000D92E8
:020A6E000D91E8
:020A6F000D90E8
:020A70000D8FE8
:020A71000D8EE8
:020A72000D8DE8
:020A73000D8CE8
:020A74000D8BE8
:020A75000D8AE8
:020A76000D89E8
:020A77000D88E8
:020A78000D87E8
:020A79000D86E8
:020A7A000D85E8
:020A7B000D84E8
:020A7C000D83E8
:020A7D000D82E8
:020A7E000D81E8
:020A7F000D80E8
:020A80000D7FE8
:020A81000D7EE8
:020A82000D7DE8
:020A83000D7CE8
:020A84000D7BE8
:020A85000D7AE8
:020A86000D79E8
:020A87000D78E8
:020A88000D77E8
:020A89000D76E8
:020A8A000D75E8
:020A8B000D74E8
:020A8C000D73E8
:020A8D000D72E8
:020A8E000D71E8
:020A8F000D70E8
:020A90000D6FE8
:020A91000D6EE8
:020A92000D6DE8
:020A93000D6CE8
:020A94000D6BE8
:020A95000D6AE8
:020A96000D69E8
:020A97000D68E8
:020A98000D67E8
:020A99000D66E8
:020A9A000D65E8
:020A9B000D64E8
:020A9C000D63E8
:020A9D000D62E8
:020A9E000D61E8
:020A9F000D60E8
:020AA0000D5FE8
:020AA1000D5EE8
:020AA2000D5DE8
:020AA3000D5CE8
:020AA4000D5BE8
:020AA5000D5AE8
:020AA6000D59E8
:020AA7000D58E8
:020AA8000D57E8
:020AA9000D56E8
:020AAA000D55E8
:020AAB000D54E8
:020AAC000D53E8
:020AAD000D52E8
:020AAE000D51E8
:020AAF000D50E8
:020AB0000D4FE8
:020AB1000D4EE8
:020AB2000D4DE8
:020AB3000D4CE8
:020AB4000D4BE8
:020AB5000D4AE8
:020AB6000D49E8
:020AB7000D48E8
:020AB8000D47E8
:020AB9000D46E8
:020ABA000D45E8
:020ABB000D44E8
:020ABC000D43E8
:020ABD000D42E8
:020ABE000D41E8
:020ABF000D40E8
:020AC0000D3FE8
:020AC1000D3EE8
:020AC2000D3DE8
:020AC3000D3CE8
:020AC4000D3BE8
:020AC5000D3AE8
:020AC6000D39E8
:020AC7000D38E8
:020AC8000D37E8
:020AC9000D36E8
:020ACA000D35E8
:020ACB000D34E8
:020ACC000D33E8
:020ACD000D32E8
:020ACE000D31E8
:020ACF000D30E8
:020AD0000D2FE8
:020AD1000D2EE8
:020AD2000D2DE8
:020AD3000D2CE8
:020AD4000D2BE8
:020AD5000D2AE8
:020AD6000D29E8
:020AD7000D28E8
:020AD8000D27E8
:020AD9000D26E8
:020ADA000D25E8
:020ADB000D24E8
:020ADC000D23E8
:020ADD000D22E8
:020ADE000D21E8
:020ADF000D20E8
:020AE0000D1FE8
:020AE1000D1EE8
:020AE2000D1DE8
:020AE3000D1CE8
:020AE4000D1BE8
:020AE5000D1AE8
:020AE6000D19E8
:020AE7000D18E8
:020AE8000D17E8
:020AE9000D16E8
:020AEA000D15E8
:020AEB000D14E8
:020AEC000D13E8
:020AED000D12E8
:020AEE000D11E8
:020AEF000D10E8
:020AF0000D0FE8
:020AF1000D0EE8
:020AF2000D0DE8
:020AF3000D0CE8
:020AF4000D0BE8
:020AF5000D0AE8
:020AF6000D09E8
:020AF7000D08E8
:020AF8000D07E8
:020AF9000D06E8
:020AFA000D05E8
:020AFB000D04E8
:020AFC000D03E8
:020AFD000D02E8
:020AFE000D01E8
:020AFF000D00E8
:020B00000CFFE8
:020B01000CFEE8
:020B02000CFDE8
:020B03000CFCE8
:020B04000CFBE8
:020B05000CFAE8
:020B06000CF9E8
:020B07000CF8E8
:020B08000CF7E8
:020B09000CF6E8
:020B0A000CF5E8
:020B0B000CF4E8
:020B0C000CF3E8
:020B0D000CF2E8
:020B0E000CF1E8
:020B0F000CF0E8
:020B10000CEFE8
:020B11000CEEE8
:020B12000CEDE8
:020B13000CECE8
:020B14000CEBE8
:020B15000CEAE8
:020B16000CE9E8
:020B17000CE8E8
:020B18000CE7E8
:020B19000CE6E8
:020B1A000CE5E8
:020B1B000CE4E8
:020B1C000CE3E8
:020B1D000CE2E8
:020B1E000CE1E8
:020B1F000CE0E8
:020B20000CDFE8
:020B21000CDEE8
:020B22000CDDE8
:020B23000CDCE8
:020B24000CDBE8
:020B25000CDAE8
:020B26000CD9E8
:020B27000CD8E8
:020B28000CD7E8
:020B29000CD6E8
:020B2A000CD5E8
:020B2B000CD4E8
:020B2C000CD3E8
:020B2D000CD2E8
:020B2E000CD1E8
:020B2F000CD0E8
:020B30000CCFE8
:020B31000CCEE8
:020B32000CCDE8
:020B33000CCCE8
:020B34000CCBE8
:020B35000CCAE8
:020B36000CC9E8
:020B37000CC8E8
:020B38000CC7E8
:020B39000CC6E8
:020B3A000CC5E8
:020B3B000CC4E8
:020B3C000CC3E8
:020B3D000CC2E8
:020B3E000CC1E8
:020B3F000CC0E8
:020B40000CBFE8
:020B41000CBEE8
:020B42000CBDE8
:020B43000CBCE8
:020B44000CBBE8
:020B45000CBAE8
:020B46000CB9E8
:020B47000CB8E8
:020B48000CB7E8
:020B49000CB6E8
:020B4A000CB5E8
:020B4B000CB4E8
:020B4C000CB3E8
:020B4D000CB2E8
:020B4E000CB1E8
:020B4F000CB0E8
:020B50000CAFE8
:020B51000CAEE8
:020B52000CADE8
:020B53000CACE8
:020B54000CABE8
:020B55000CAAE8
:020B56000CA9E8
:020B57000CA8E8
:020B58000CA7E8
:020B59000CA6E8
:020B5A000CA5E8
:020B5B000CA4E8
:020B5C000CA3E8
:020B5D000CA2E8
:020B5E000CA1E8
:020B5F000CA0E8
:020B60000C9FE8
:020B61000C9EE8
:020B62000C9DE8
:020B63000C9CE8
:020B64000C9BE8
:020B65000C9AE8
:020B66000C99E8
:020B67000C98E8
:020B68000C97E8
:020B69000C96E8
:020B6A000C95E8
:020B6B000C94E8
:020B6C000C93E8
:020B6D000C92E8
:020B6E000C91E8
:020B6F000C90E8
:020B70000C8FE8
:020B71000C8EE8
:020B72000C8DE8
:020B73000C8CE8
:020B74000C8BE8
:020B75000C8AE8
:020B76000C89E8
:020B77000C88E8
:020B78000C87E8
:020B79000C86E8
:020B7A000C85E8
:020B7B000C84E8
:020B7C000C83E8
:020B7D000C82E8
:020B7E000C81E8
:020B7F000C80E8
:020B80000C7FE8
:020B81000C7EE8
:020B82000C7DE8
:020B83000C7CE8
:020B84000C7BE8
:020B85000C7AE8
:020B86000C79E8
:020B87000C78E8
:020B88000C77E8
:020B89000C76E8
:020B8A000C75E8
:020B8B000C74E8
:020B8C000C73E8
:020B8D000C72E8
:020B8E000C71E8
:020B8F000C70E8
:020B90000C6FE8
:020B91000C6EE8
:020B92000C6DE8
:020B93000C6CE8
:020B94000C6BE8
:020B95000C6AE8
:020B96000C69E8
:020B97000C68E8
:020B98000C67E8
:020B99000C66E8
:020B9A000C65E8
:020B9B000C64E8
:020B9C000C63E8
:020B9D000C62E8
:020B9E000C61E8
:020B9F000C60E8
:020BA0000C5FE8
:020BA1000C5EE8
:020BA2000C5DE8
:020BA3000C5CE8
:020BA4000C5BE8
:020BA5000C5AE8
:020BA6000C59E8
:020BA7000C58E8
:020BA8000C57E8
:020BA9000C56E8
:020BAA000C55E8
:020BAB000C54E8
:020BAC000C53E8
:020BAD000C52E8
:020BAE000C51E8
:020BAF000C50E8
:020BB0000C4FE8
:020BB1000C4EE8
:020BB2000C4DE8
:020BB3000C4CE8
:020BB4000C4BE8
:020BB5000C4AE8
:020BB6000C49E8
:020BB7000C48E8
:020BB8000C47E8
:020BB9000C46E8
:020BBA000C45E8
:020BBB000C44E8
:020BBC000C43E8
:020BBD000C42E8
:020BBE000C41E8
:020BBF000C40E8
:020BC0000C3FE8
:020BC1000C3EE8
:020BC2000C3DE8
:020BC3000C3CE8
:020BC4000C3BE8
:020BC5000C3AE8
:020BC6000C39E8
:020BC7000C38E8
:020BC8000C37E8
:020BC9000C36E8
:020BCA000C35E8
:020BCB000C34E8
:020BCC000C33E8
:020BCD000C32E8
:020BCE000C31E8
:020BCF000C30E8
:020BD0000C2FE8
:020BD1000C2EE8
:020BD2000C2DE8
:020BD3000C2CE8
:020BD4000C2BE8
:020BD5000C2AE8
:020BD6000C29E8
:020BD7000C28E8
:020BD8000C27E8
:020BD9000C26E8
:020BDA000C25E8
:020BDB000C24E8
:020BDC000C23E8
:020BDD000C22E8
:020BDE000C21E8
:020BDF000C20E8
:020BE0000C1FE8
:020BE1000C1EE8
:020BE2000C1DE8
:020BE3000C1CE8
:020BE4000C1BE8
:020BE5000C1AE8
:020BE6000C19E8
:020BE7000C18E8
:020BE8000C17E8
:020BE9000C16E8
:020BEA000C15E8
:020BEB000C14E8
:020BEC000C13E8
:020BED000C12E8
:020BEE000C11E8
:020BEF000C10E8
:020BF0000C0FE8
:020BF1000C0EE8
:020BF2000C0DE8
:020BF3000C0CE8
:020BF4000C0BE8
:020BF5000C0AE8
:020BF6000C09E8
:020BF7000C08E8
:020BF8000C07E8
:020BF9000C06E8
:020BFA000C05E8
:020BFB000C04E8
:020BFC000C03E8
:020BFD000C02E8
:020BFE000C01E8
:020BFF000C00E8
:020C00000BFFE8
:020C01000BFEE8
:020C02000BFDE8
:020C03000BFCE8
:020C04000BFBE8
:020C05000BFAE8
:020C06000BF9E8
:020C07000BF8E8
:020C08000BF7E8
:020C09000BF6E8
:020C0A000BF5E8
:020C0B000BF4E8
:020C0C000BF3E8
:020C0D000BF2E8
:020C0E000BF1E8
:020C0F000BF0E8
:020C10000BEFE8
:020C11000BEEE8
:020C12000BEDE8
:020C13000BECE8
:020C14000BEBE8
:020C15000BEAE8
:020C16000BE9E8
:020C17000BE8E8
:020C18000BE7E8
:020C19000BE6E8
:020C1A000BE5E8
:020C1B000BE4E8
:020C1C000BE3E8
:020C1D000BE2E8
:020C1E000BE1E8
:020C1F000BE0E8
:020C20000BDFE8
:020C21000BDEE8
:020C22000BDDE8
:020C23000BDCE8
:020C24000BDBE8
:020C25000BDAE8
:020C26000BD9E8
:020C27000BD8E8
:020C28000BD7E8
:020C29000BD6E8
:020C2A000BD5E8
:020C2B000BD4E8
:020C2C000BD3E8
:020C2D000BD2E8
:020C2E000BD1E8
:020C2F000BD0E8
:020C30000BCFE8
:020C31000BCEE8
:020C32000BCDE8
:020C33000BCCE8
:020C34000BCBE8
:020C35000BCAE8
:020C36000BC9E8
:020C37000BC8E8
:020C38000BC7E8
:020C39000BC6E8
:020C3A000BC5E8
:020C3B000BC4E8
:020C3C000BC3E8
:020C3D000BC2E8
:020C3E000BC1E8
:020C3F000BC0E8
:020C40000BBFE8
:020C41000BBEE8
:020C42000BBDE8
:020C43000BBCE8
:020C44000BBBE8
:020C45000BBAE8
:020C46000BB9E8
:020C47000BB8E8
:020C48000BB7E8
:020C49000BB6E8
:020C4A000BB5E8
:020C4B000BB4E8
:020C4C000BB3E8
:020C4D000BB2E8
:020C4E000BB1E8
:020C4F000BB0E8
:020C50000BAFE8
:020C51000BAEE8
:020C52000BADE8
:020C53000BACE8
:020C54000BABE8
:020C55000BAAE8
:020C56000BA9E8
:020C57000BA8E8
:020C58000BA7E8
:020C59000BA6E8
:020C5A000BA5E8
:020C5B000BA4E8
:020C5C000BA3E8
:020C5D000BA2E8
:020C5E000BA1E8
:020C5F000BA0E8
:020C60000B9FE8
:020C61000B9EE8
:020C62000B9DE8
:020C63000B9CE8
:020C64000B9BE8
:020C65000B9AE8
:020C66000B99E8
:020C67000B98E8
:020C68000B97E8
:020C69000B96E8
:020C6A000B95E8
:020C6B000B94E8
:020C6C000B93E8
:020C6D000B92E8
:020C6E000B91E8
:020C6F000B90E8
:020C70000B8FE8
:020C71000B8EE8
:020C72000B8DE8
:020C73000B8CE8
:020C74000B8BE8
:020C75000B8AE8
:020C76000B89E8
:020C77000B88E8
:020C78000B87E8
:020C79000B86E8
:020C7A000B85E8
:020C7B000B84E8
:020C7C000B83E8
:020C7D000B82E8
:020C7E000B81E8
:020C7F000B80E8
:020C80000B7FE8
:020C81000B7EE8
:020C82000B7DE8
:020C83000B7CE8
:020C84000B7BE8
:020C85000B7AE8
:020C86000B79E8
:020C87000B78E8
:020C88000B77E8
:020C89000B76E8
:020C8A000B75E8
:020C8B000B74E8
:020C8C000B73E8
:020C8D000B72E8
:020C8E000B71E8
:020C8F000B70E8
:020C90000B6FE8
:020C91000B6EE8
:020C92000B6DE8
:020C93000B6CE8
:020C94000B6BE8
:020C95000B6AE8
:020C96000B69E8
:020C97000B68E8
:020C98000B67E8
:020C99000B66E8
:020C9A000B65E8
:020C9B000B64E8
:020C9C000B63E8
:020C9D000B62E8
:020C9E000B61E8
:020C9F000B60E8
:020CA0000B5FE8
:020CA1000B5EE8
:020CA2000B5DE8
:020CA3000B5CE8
:020CA4000B5BE8
:020CA5000B5AE8
:020CA6000B59E8
:020CA7000B58E8
:020CA8000B57E8
:020CA9000B56E8
:020CAA000B55E8
:020CAB000B54E8
:020CAC000B53E8
:020CAD000B52E8
:020CAE000B51E8
:020CAF000B50E8
:020CB0000B4FE8
:020CB1000B4EE8
:020CB2000B4DE8
:020CB3000B4CE8
:020CB4000B4BE8
:020CB5000B4AE8
:020CB6000B49E8
:020CB7000B48E8
:020CB8000B47E8
:020CB9000B46E8
:020CBA000B45E8
:020CBB000B44E8
:020CBC000B43E8
:020CBD000B42E8
:020CBE000B41E8
:020CBF000B40E8
:020CC0000B3FE8
:020CC1000B3EE8
:020CC2000B3DE8
:020CC3000B3CE8
:020CC4000B3BE8
:020CC5000B3AE8
:020CC6000B39E8
:020CC7000B38E8
:020CC8000B37E8
:020CC9000B36E8
:020CCA000B35E8
:020CCB000B34E8
:020CCC000B33E8
:020CCD000B32E8
:020CCE000B31E8
:020CCF000B30E8
:020CD0000B2FE8
:020CD1000B2EE8
:020CD2000B2DE8
:020CD3000B2CE8
:020CD4000B2BE8
:020CD5000B2AE8
:020CD6000B29E8
:020CD7000B28E8
:020CD8000B27E8
:020CD9000B26E8
:020CDA000B25E8
:020CDB000B24E8
:020CDC000B23E8
:020CDD000B22E8
:020CDE000B21E8
:020CDF000B20E8
:020CE0000B1FE8
:020CE1000B1EE8
:020CE2000B1DE8
:020CE3000B1CE8
:020CE4000B1BE8
:020CE5000B1AE8
:020CE6000B19E8
:020CE7000B18E8
:020CE8000B17E8
:020CE9000B16E8
:020CEA000B15E8
:020CEB000B14E8
:020CEC000B13E8
:020CED000B12E8
:020CEE000B11E8
:020CEF000B10E8
:020CF0000B0FE8
:020CF1000B0EE8
:020CF2000B0DE8
:020CF3000B0CE8
:020CF4000B0BE8
:020CF5000B0AE8
:020CF6000B09E8
:020CF7000B08E8
:020CF8000B07E8
:020CF9000B06E8
:020CFA000B05E8
:020CFB000B04E8
:020CFC000B03E8
:020CFD000B02E8
:020CFE000B01E8
:020CFF000B00E8
:020D00000AFFE8
:020D01000AFEE8
:020D02000AFDE8
:020D03000AFCE8
:020D04000AFBE8
:020D05000AFAE8
:020D06000AF9E8
:020D07000AF8E8
:020D08000AF7E8
:020D09000AF6E8
:020D0A000AF5E8
:020D0B000AF4E8
:020D0C000AF3E8
:020D0D000AF2E8
:020D0E000AF1E8
:020D0F000AF0E8
:020D10000AEFE8
:020D11000AEEE8
:020D12000AEDE8
:020D13000AECE8
:020D14000AEBE8
:020D15000AEAE8
:020D16000AE9E8
:020D17000AE8E8
:020D18000AE7E8
:020D19000AE6E8
:020D1A000AE5E8
:020D1B000AE4E8
:020D1C000AE3E8
:020D1D000AE2E8
:020D1E000AE1E8
:020D1F000AE0E8
:020D20000ADFE8
:020D21000ADEE8
:020D22000ADDE8
:020D23000ADCE8
:020D24000ADBE8
:020D25000ADAE8
:020D26000AD9E8
:020D27000AD8E8
:020D28000AD7E8
:020D29000AD6E8
:020D2A000AD5E8
:020D2B000AD4E8
:020D2C000AD3E8
:020D2D000AD2E8
:020D2E000AD1E8
:020D2F000AD0E8
:020D30000ACFE8
:020D31000ACEE8
:020D32000ACDE8
:020D33000ACCE8
:020D34000ACBE8
:020D35000ACAE8
:020D36000AC9E8
:020D37000AC8E8
:020D38000AC7E8
:020D39000AC6E8
:020D3A000AC5E8
:020D3B000AC4E8
:020D3C000AC3E8
:020D3D000AC2E8
:020D3E000AC1E8
:020D3F000AC0E8
:020D40000ABFE8
:020D41000ABEE8
:020D42000ABDE8
:020D43000ABCE8
:020D44000ABBE8
:020D45000ABAE8
:020D46000AB9E8
:020D47000AB8E8
:020D48000AB7E8
:020D49000AB6E8
:020D4A000AB5E8
:020D4B000AB4E8
:020D4C000AB3E8
:020D4D000AB2E8
:020D4E000AB1E8
:020D4F000AB0E8
:020D50000AAFE8
:020D51000AAEE8
:020D52000AADE8
:020D53000AACE8
:020D54000AABE8
:020D55000AAAE8
:020D56000AA9E8
:020D57000AA8E8
:020D58000AA7E8
:020D59000AA6E8
:020D5A000AA5E8
:020D5B000AA4E8
:020D5C000AA3E8
:020D5D000AA2E8
:020D5E000AA1E8
:020D5F000AA0E8
:020D60000A9FE8
:020D61000A9EE8
:020D62000A9DE8
:020D63000A9CE8
:020D64000A9BE8
:020D65000A9AE8
:020D66000A99E8
:020D67000A98E8
:020D68000A97E8
:020D69000A96E8
:020D6A000A95E8
:020D6B000A94E8
:020D6C000A93E8
:020D6D000A92E8
:020D6E000A91E8
:020D6F000A90E8
:020D70000A8FE8
:020D71000A8EE8
:020D72000A8DE8
:020D73000A8CE8
:020D74000A8BE8
:020D75000A8AE8
:020D76000A89E8
:020D77000A88E8
:020D78000A87E8
:020D79000A86E8
:020D7A000A85E8
:020D7B000A84E8
:020D7C000A83E8
:020D7D000A82E8
:020D7E000A81E8
:020D7F000A80E8
:020D80000A7FE8
:020D81000A7EE8
:020D82000A7DE8
:020D83000A7CE8
:020D84000A7BE8
:020D85000A7AE8
:020D86000A79E8
:020D87000A78E8
:020D88000A77E8
:020D89000A76E8
:020D8A000A75E8
:020D8B000A74E8
:020D8C000A73E8
:020D8D000A72E8
:020D8E000A71E8
:020D8F000A70E8
:020D90000A6FE8
:020D91000A6EE8
:020D92000A6DE8
:020D93000A6CE8
:020D94000A6BE8
:020D95000A6AE8
:020D96000A69E8
:020D97000A68E8
:020D98000A67E8
:020D99000A66E8
:020D9A000A65E8
:020D9B000A64E8
:020D9C000A63E8
:020D9D000A62E8
:020D9E000A61E8
:020D9F000A60E8
:020DA0000A5FE8
:020DA1000A5EE8
:020DA2000A5DE8
:020DA3000A5CE8
:020DA4000A5BE8
:020DA5000A5AE8
:020DA6000A59E8
:020DA7000A58E8
:020DA8000A57E8
:020DA9000A56E8
:020DAA000A55E8
:020DAB000A54E8
:020DAC000A53E8
:020DAD000A52E8
:020DAE000A51E8
:020DAF000A50E8
:020DB0000A4FE8
:020DB1000A4EE8
:020DB2000A4DE8
:020DB3000A4CE8
:020DB4000A4BE8
:020DB5000A4AE8
:020DB6000A49E8
:020DB7000A48E8
:020DB8000A47E8
:020DB9000A46E8
:020DBA000A45E8
:020DBB000A44E8
:020DBC000A43E8
:020DBD000A42E8
:020DBE000A41E8
:020DBF000A40E8
:020DC0000A3FE8
:020DC1000A3EE8
:020DC2000A3DE8
:020DC3000A3CE8
:020DC4000A3BE8
:020DC5000A3AE8
:020DC6000A39E8
:020DC7000A38E8
:020DC8000A37E8
:020DC9000A36E8
:020DCA000A35E8
:020DCB000A34E8
:020DCC000A33E8
:020DCD000A32E8
:020DCE000A31E8
:020DCF000A30E8
:020DD0000A2FE8
:020DD1000A2EE8
:020DD2000A2DE8
:020DD3000A2CE8
:020DD4000A2BE8
:020DD5000A2AE8
:020DD6000A29E8
:020DD7000A28E8
:020DD8000A27E8
:020DD9000A26E8
:020DDA000A25E8
:020DDB000A24E8
:020DDC000A23E8
:020DDD000A22E8
:020DDE000A21E8
:020DDF000A20E8
:020DE0000A1FE8
:020DE1000A1EE8
:020DE2000A1DE8
:020DE3000A1CE8
:020DE4000A1BE8
:020DE5000A1AE8
:020DE6000A19E8
:020DE7000A18E8
:020DE8000A17E8
:020DE9000A16E8
:020DEA000A15E8
:020DEB000A14E8
:020DEC000A13E8
:020DED000A12E8
:020DEE000A11E8
:020DEF000A10E8
:020DF0000A0FE8
:020DF1000A0EE8
:020DF2000A0DE8
:020DF3000A0CE8
:020DF4000A0BE8
:020DF5000A0AE8
:020DF6000A09E8
:020DF7000A08E8
:020DF8000A07E8
:020DF9000A06E8
:020DFA000A05E8
:020DFB000A04E8
:020DFC000A03E8
:020DFD000A02E8
:020DFE000A01E8
:020DFF000A00E8
:020E000009FFE8
:020E010009FEE8
:020E020009FDE8
:020E030009FCE8
:020E040009FBE8
:020E050009FAE8
:020E060009F9E8
:020E070009F8E8
:020E080009F7E8
:020E090009F6E8
:020E0A0009F5E8
:020E0B0009F4E8
:020E0C0009F3E8
:020E0D0009F2E8
:020E0E0009F1E8
:020E0F0009F0E8
:020E100009EFE8
:020E110009EEE8
:020E120009EDE8
:020E130009ECE8
:020E140009EBE8
:020E150009EAE8
:020E160009E9E8
:020E170009E8E8
:020E180009E7E8
:020E190009E6E8
:020E1A0009E5E8
:020E1B0009E4E8
:020E1C0009E3E8
:020E1D0009E2E8
:020E1E0009E1E8
:020E1F0009E0E8
:020E200009DFE8
:020E210009DEE8
:020E220009DDE8
:020E230009DCE8
:020E240009DBE8
:020E250009DAE8
:020E260009D9E8
:020E270009D8E8
:020E280009D7E8
:020E290009D6E8
:020E2A0009D5E8
:020E2B0009D4E8
:020E2C0009D3E8
:020E2D0009D2E8
:020E2E0009D1E8
:020E2F0009D0E8
:020E300009CFE8
:020E310009CEE8
:020E320009CDE8
:020E330009CCE8
:020E340009CBE8
:020E350009CAE8
:020E360009C9E8
:020E370009C8E8
:020E380009C7E8
:020E390009C6E8
:020E3A0009C5E8
:020E3B0009C4E8
:020E3C0009C3E8
:020E3D0009C2E8
:020E3E0009C1E8
:020E3F0009C0E8
:020E400009BFE8
:020E410009BEE8
:020E420009BDE8
:020E430009BCE8
:020E440009BBE8
:020E450009BAE8
:020E460009B9E8
:020E470009B8E8
:020E480009B7E8
:020E490009B6E8
:020E4A0009B5E8
:020E4B0009B4E8
:020E4C0009B3E8
:020E4D0009B2E8
:020E4E0009B1E8
:020E4F0009B0E8
:020E500009AFE8
:020E510009AEE8
:020E520009ADE8
:020E530009ACE8
:020E540009ABE8
:020E550009AAE8
:020E560009A9E8
:020E570009A8E8
:020E580009A7E8
:020E590009A6E8
:020E5A0009A5E8
:020E5B0009A4E8
:020E5C0009A3E8
:020E5D0009A2E8
:020E5E0009A1E8
:020E5F0009A0E8
:020E6000099FE8
:020E6100099EE8
:020E6200099DE8
:020E6300099CE8
:020E6400099BE8
:020E6500099AE8
:020E66000999E8
:020E67000998E8
:020E68000997E8
:020E69000996E8
:020E6A000995E8
:020E6B000994E8
:020E6C000993E8
:020E6D000992E8
:020E6E000991E8
:020E6F000990E8
:020E7000098FE8
:020E7100098EE8
:020E7200098DE8
:020E7300098CE8
:020E7400098BE8
:020E7500098AE8
:020E76000989E8
:020E77000988E8
:020E78000987E8
:020E79000986E8
:020E7A000985E8
:020E7B000984E8
:020E7C000983E8
:020E7D000982E8
:020E7E000981E8
:020E7F000980E8
:020E8000097FE8
:020E8100097EE8
:020E8200097DE8
:020E8300097CE8
:020E8400097BE8
:020E8500097AE8
:020E86000979E8
:020E87000978E8
:020E88000977E8
:020E89000976E8
:020E8A000975E8
:020E8B000974E8
:020E8C000973E8
:020E8D000972E8
:020E8E000971E8
:020E8F000970E8
:020E9000096FE8
:020E9100096EE8
:020E9200096DE8
:020E9300096CE8
:020E9400096BE8
:020E9500096AE8
:020E96000969E8
:020E97000968E8
:020E98000967E8
:020E99000966E8
:020E9A000965E8
:020E9B000964E8
:020E9C000963E8
:020E9D000962E8
:020E9E000961E8
:020E9F000960E8
:020EA000095FE8
:020EA100095EE8
:020EA200095DE8
:020EA300095CE8
:020EA400095BE8
:020EA500095AE8
:020EA6000959E8
:020EA7000958E8
:020EA8000957E8
:020EA9000956E8
:020EAA000955E8
:020EAB000954E8
:020EAC000953E8
:020EAD000952E8
:020EAE000951E8
:020EAF000950E8
:020EB000094FE8
:020EB100094EE8
:020EB200094DE8
:020EB300094CE8
:020EB400094BE8
:020EB500094AE8
:020EB6000949E8
:020EB7000948E8
:020EB8000947E8
:020EB9000946E8
:020EBA000945E8
:020EBB000944E8
:020EBC000943E8
:020EBD000942E8
:020EBE000941E8
:020EBF000940E8
:020EC000093FE8
:020EC100093EE8
:020EC200093DE8
:020EC300093CE8
:020EC400093BE8
:020EC500093AE8
:020EC6000939E8
:020EC7000938E8
:020EC8000937E8
:020EC9000936E8
:020ECA000935E8
:020ECB000934E8
:020ECC000933E8
:020ECD000932E8
:020ECE000931E8
:020ECF000930E8
:020ED000092FE8
:020ED100092EE8
:020ED200092DE8
:020ED300092CE8
:020ED400092BE8
:020ED500092AE8
:020ED6000929E8
:020ED7000928E8
:020ED8000927E8
:020ED9000926E8
:020EDA000925E8
:020EDB000924E8
:020EDC000923E8
:020EDD000922E8
:020EDE000921E8
:020EDF000920E8
:020EE000091FE8
:020EE100091EE8
:020EE200091DE8
:020EE300091CE8
:020EE400091BE8
:020EE500091AE8
:020EE6000919E8
:020EE7000918E8
:020EE8000917E8
:020EE9000916E8
:020EEA000915E8
:020EEB000914E8
:020EEC000913E8
:020EED000912E8
:020EEE000911E8
:020EEF000910E8
:020EF000090FE8
:020EF100090EE8
:020EF200090DE8
:020EF300090CE8
:020EF400090BE8
:020EF500090AE8
:020EF6000909E8
:020EF7000908E8
:020EF8000907E8
:020EF9000906E8
:020EFA000905E8
:020EFB000904E8
:020EFC000903E8
:020EFD000902E8
:020EFE000901E8
:020EFF000900E8
:020F000008FFE8
:020F010008FEE8
:020F020008FDE8
:020F030008FCE8
:020F040008FBE8
:020F050008FAE8
:020F060008F9E8
:020F070008F8E8
:020F080008F7E8
:020F090008F6E8
:020F0A0008F5E8
:020F0B0008F4E8
:020F0C0008F3E8
:020F0D0008F2E8
:020F0E0008F1E8
:020F0F0008F0E8
:020F100008EFE8
:020F110008EEE8
:020F120008EDE8
:020F130008ECE8
:020F140008EBE8
:020F150008EAE8
:020F160008E9E8
:020F170008E8E8
:020F180008E7E8
:020F190008E6E8
:020F1A0008E5E8
:020F1B0008E4E8
:020F1C0008E3E8
:020F1D0008E2E8
:020F1E0008E1E8
:020F1F0008E0E8
:020F200008DFE8
:020F210008DEE8
:020F220008DDE8
:020F230008DCE8
:020F240008DBE8
:020F250008DAE8
:020F260008D9E8
:020F270008D8E8
:020F280008D7E8
:020F290008D6E8
:020F2A0008D5E8
:020F2B0008D4E8
:020F2C0008D3E8
:020F2D0008D2E8
:020F2E0008D1E8
:020F2F0008D0E8
:020F300008CFE8
:020F310008CEE8
:020F320008CDE8
:020F330008CCE8
:020F340008CBE8
:020F350008CAE8
:020F360008C9E8
:020F370008C8E8
:020F380008C7E8
:020F390008C6E8
:020F3A0008C5E8
:020F3B0008C4E8
:020F3C0008C3E8
:020F3D0008C2E8
:020F3E0008C1E8
:020F3F0008C0E8
:020F400008BFE8
:020F410008BEE8
:020F420008BDE8
:020F430008BCE8
:020F440008BBE8
:020F450008BAE8
:020F460008B9E8
:020F470008B8E8
:020F480008B7E8
:020F490008B6E8
:020F4A0008B5E8
:020F4B0008B4E8
:020F4C0008B3E8
:020F4D0008B2E8
:020F4E0008B1E8
:020F4F0008B0E8
:020F500008AFE8
:020F510008AEE8
:020F520008ADE8
:020F530008ACE8
:020F540008ABE8
:020F550008AAE8
:020F560008A9E8
:020F570008A8E8
:020F580008A7E8
:020F590008A6E8
:020F5A0008A5E8
:020F5B0008A4E8
:020F5C0008A3E8
:020F5D0008A2E8
:020F5E0008A1E8
:020F5F0008A0E8
:020F6000089FE8
:020F6100089EE8
:020F6200089DE8
:020F6300089CE8
:020F6400089BE8
:020F6500089AE8
:020F66000899E8
:020F67000898E8
:020F68000897E8
:020F69000896E8
:020F6A000895E8
:020F6B000894E8
:020F6C000893E8
:020F6D000892E8
:020F6E000891E8
:020F6F000890E8
:020F7000088FE8
:020F7100088EE8
:020F7200088DE8
:020F7300088CE8
:020F7400088BE8
:020F7500088AE8
:020F76000889E8
:020F77000888E8
:020F78000887E8
:020F79000886E8
:020F7A000885E8
:020F7B000884E8
:020F7C000883E8
:020F7D000882E8
:020F7E000881E8
:020F7F000880E8
:020F8000087FE8
:020F8100087EE8
:020F8200087DE8
:020F8300087CE8
:020F8400087BE8
:020F8500087AE8
:020F86000879E8
:020F87000878E8
:020F88000877E8
:020F89000876E8
:020F8A000875E8
:020F8B000874E8
:020F8C000873E8
:020F8D000872E8
:020F8E000871E8
:020F8F000870E8
:020F9000086FE8
:020F9100086EE8
:020F9200086DE8
:020F9300086CE8
:020F9400086BE8
:020F9500086AE8
:020F96000869E8
:020F97000868E8
:020F98000867E8
:020F99000866E8
:020F9A000865E8
:020F9B000864E8
:020F9C000863E8
:020F9D000862E8
:020F9E000861E8
:020F9F000860E8
