:020000000800F6
:020001000802F3
:020002000804F0
:020003000806ED
:020004000808EA
:02000500080AE7
:02000600080CE4
:02000700080EE1
:020008000810DE
:020009000812DB
:02000A000814D8
:02000B000816D5
:02000C000818D2
:02000D00081ACF
:02000E00081CCC
:02000F00081EC9
:020010000820C6
:020011000822C3
:020012000824C0
:020013000826BD
:020014000828BA
:02001500082AB7
:02001600082CB4
:02001700082EB1
:020018000830AE
:020019000832AB
:02001A000834A8
:02001B000836A5
:02001C000838A2
:02001D00083A9F
:02001E00083C9C
:02001F00083E99
:02002000084096
:02002100084293
:02002200084490
:0200230008468D
:0200240008488A
:02002500084A87
:02002600084C84
:02002700084E81
:0200280008507E
:0200290008527B
:02002A00085478
:02002B00085675
:02002C00085872
:02002D00085A6F
:02002E00085C6C
:02002F00085E69
:02003000086066
:02003100086263
:02003200086460
:0200330008665D
:0200340008685A
:02003500086A57
:02003600086C54
:02003700086E51
:0200380008704E
:0200390008724B
:02003A00087448
:02003B00087645
:02003C00087842
:02003D00087A3F
:02003E00087C3C
:02003F00087E39
:02004000088036
:02004100088233
:02004200088430
:0200430008862D
:0200440008882A
:02004500088A27
:02004600088C24
:02004700088E21
:0200480008901E
:0200490008921B
:02004A00089418
:02004B00089615
:02004C00089812
:02004D00089A0F
:02004E00089C0C
:02004F00089E09
:0200500008A006
:0200510008A203
:0200520008A400
:0200530008A6FD
:0200540008A8FA
:0200550008AAF7
:0200560008ACF4
:0200570008AEF1
:0200580008B0EE
:0200590008B2EB
:02005A0008B4E8
:02005B0008B6E5
:02005C0008B8E2
:02005D0008BADF
:02005E0008BCDC
:02005F0008BED9
:0200600008C0D6
:0200610008C2D3
:0200620008C4D0
:0200630008C6CD
:0200640008C8CA
:0200650008CAC7
:0200660008CCC4
:0200670008CEC1
:0200680008D0BE
:0200690008D2BB
:02006A0008D4B8
:02006B0008D6B5
:02006C0008D8B2
:02006D0008DAAF
:02006E0008DCAC
:02006F0008DEA9
:0200700008E0A6
:0200710008E2A3
:0200720008E4A0
:0200730008E69D
:0200740008E89A
:0200750008EA97
:0200760008EC94
:0200770008EE91
:0200780008F08E
:0200790008F28B
:02007A0008F488
:02007B0008F685
:02007C0008F882
:02007D0008FA7F
:02007E0008FC7C
:02007F0008FE79
:02008000090075
:02008100090272
:0200820009046F
:0200830009066C
:02008400090869
:02008500090A66
:02008600090C63
:02008700090E60
:0200880009105D
:0200890009125A
:02008A00091457
:02008B00091654
:02008C00091851
:02008D00091A4E
:02008E00091C4B
:02008F00091E48
:02009000092045
:02009100092242
:0200920009243F
:0200930009263C
:02009400092839
:02009500092A36
:02009600092C33
:02009700092E30
:0200980009302D
:0200990009322A
:02009A00093427
:02009B00093624
:02009C00093821
:02009D00093A1E
:02009E00093C1B
:02009F00093E18
:0200A000094015
:0200A100094212
:0200A20009440F
:0200A30009460C
:0200A400094809
:0200A500094A06
:0200A600094C03
:0200A700094E00
:0200A8000950FD
:0200A9000952FA
:0200AA000954F7
:0200AB000956F4
:0200AC000958F1
:0200AD00095AEE
:0200AE00095CEB
:0200AF00095EE8
:0200B0000960E5
:0200B1000962E2
:0200B2000964DF
:0200B3000966DC
:0200B4000968D9
:0200B500096AD6
:0200B600096CD3
:0200B700096ED0
:0200B8000970CD
:0200B9000972CA
:0200BA000974C7
:0200BB000976C4
:0200BC000978C1
:0200BD00097ABE
:0200BE00097CBB
:0200BF00097EB8
:0200C0000980B5
:0200C1000982B2
:0200C2000984AF
:0200C3000986AC
:0200C4000988A9
:0200C500098AA6
:0200C600098CA3
:0200C700098EA0
:0200C80009909D
:0200C90009929A
:0200CA00099497
:0200CB00099694
:0200CC00099891
:0200CD00099A8E
:0200CE00099C8B
:0200CF00099E88
:0200D00009A085
:0200D10009A282
:0200D20009A47F
:0200D30009A67C
:0200D40009A879
:0200D50009AA76
:0200D60009AC73
:0200D70009AE70
:0200D80009B06D
:0200D90009B26A
:0200DA0009B467
:0200DB0009B664
:0200DC0009B861
:0200DD0009BA5E
:0200DE0009BC5B
:0200DF0009BE58
:0200E00009C055
:0200E10009C252
:0200E20009C44F
:0200E30009C64C
:0200E40009C849
:0200E50009CA46
:0200E60009CC43
:0200E70009CE40
:0200E80009D03D
:0200E90009D23A
:0200EA0009D437
:0200EB0009D634
:0200EC0009D831
:0200ED0009DA2E
:0200EE0009DC2B
:0200EF0009DE28
:0200F00009E025
:0200F10009E222
:0200F20009E41F
:0200F30009E61C
:0200F40009E819
:0200F50009EA16
:0200F60009EC13
:0200F70009EE10
:0200F80009F00D
:0200F90009F20A
:0200FA0009F407
:0200FB0009F604
:0200FC0009F801
:0200FD0009FAFE
:0200FE0009FCFB
:0200FF0009FEF8
:020100000A00F3
:020101000A02F0
:020102000A04ED
:020103000A06EA
:020104000A08E7
:020105000A0AE4
:020106000A0CE1
:020107000A0EDE
:020108000A10DB
:020109000A12D8
:02010A000A14D5
:02010B000A16D2
:02010C000A18CF
:02010D000A1ACC
:02010E000A1CC9
:02010F000A1EC6
:020110000A20C3
:020111000A22C0
:020112000A24BD
:020113000A26BA
:020114000A28B7
:020115000A2AB4
:020116000A2CB1
:020117000A2EAE
:020118000A30AB
:020119000A32A8
:02011A000A34A5
:02011B000A36A2
:02011C000A389F
:02011D000A3A9C
:02011E000A3C99
:02011F000A3E96
:020120000A4093
:020121000A4290
:020122000A448D
:020123000A468A
:020124000A4887
:020125000A4A84
:020126000A4C81
:020127000A4E7E
:020128000A507B
:020129000A5278
:02012A000A5475
:02012B000A5672
:02012C000A586F
:02012D000A5A6C
:02012E000A5C69
:02012F000A5E66
:020130000A6063
:020131000A6260
:020132000A645D
:020133000A665A
:020134000A6857
:020135000A6A54
:020136000A6C51
:020137000A6E4E
:020138000A704B
:020139000A7248
:02013A000A7445
:02013B000A7642
:02013C000A783F
:02013D000A7A3C
:02013E000A7C39
:02013F000A7E36
:020140000A8033
:020141000A8230
:020142000A842D
:020143000A862A
:020144000A8827
:020145000A8A24
:020146000A8C21
:020147000A8E1E
:020148000A901B
:020149000A9218
:02014A000A9415
:02014B000A9612
:02014C000A980F
:02014D000A9A0C
:02014E000A9C09
:02014F000A9E06
:020150000AA003
:020151000AA200
:020152000AA4FD
:020153000AA6FA
:020154000AA8F7
:020155000AAAF4
:020156000AACF1
:020157000AAEEE
:020158000AB0EB
:020159000AB2E8
:02015A000AB4E5
:02015B000AB6E2
:02015C000AB8DF
:02015D000ABADC
:02015E000ABCD9
:02015F000ABED6
:020160000AC0D3
:020161000AC2D0
:020162000AC4CD
:020163000AC6CA
:020164000AC8C7
:020165000ACAC4
:020166000ACCC1
:020167000ACEBE
:020168000AD0BB
:020169000AD2B8
:02016A000AD4B5
:02016B000AD6B2
:02016C000AD8AF
:02016D000ADAAC
:02016E000ADCA9
:02016F000ADEA6
:020170000AE0A3
:020171000AE2A0
:020172000AE49D
:020173000AE69A
:020174000AE897
:020175000AEA94
:020176000AEC91
:020177000AEE8E
:020178000AF08B
:020179000AF288
:02017A000AF485
:02017B000AF682
:02017C000AF87F
:02017D000AFA7C
:02017E000AFC79
:02017F000AFE76
:020180000B0072
:020181000B026F
:020182000B046C
:020183000B0669
:020184000B0866
:020185000B0A63
:020186000B0C60
:020187000B0E5D
:020188000B105A
:020189000B1257
:02018A000B1454
:02018B000B1651
:02018C000B184E
:02018D000B1A4B
:02018E000B1C48
:02018F000B1E45
:020190000B2042
:020191000B223F
:020192000B243C
:020193000B2639
:020194000B2836
:020195000B2A33
:020196000B2C30
:020197000B2E2D
:020198000B302A
:020199000B3227
:02019A000B3424
:02019B000B3621
:02019C000B381E
:02019D000B3A1B
:02019E000B3C18
:02019F000B3E15
:0201A0000B4012
:0201A1000B420F
:0201A2000B440C
:0201A3000B4609
:0201A4000B4806
:0201A5000B4A03
:0201A6000B4C00
:0201A7000B4EFD
:0201A8000B50FA
:0201A9000B52F7
:0201AA000B54F4
:0201AB000B56F1
:0201AC000B58EE
:0201AD000B5AEB
:0201AE000B5CE8
:0201AF000B5EE5
:0201B0000B60E2
:0201B1000B62DF
:0201B2000B64DC
:0201B3000B66D9
:0201B4000B68D6
:0201B5000B6AD3
:0201B6000B6CD0
:0201B7000B6ECD
:0201B8000B70CA
:0201B9000B72C7
:0201BA000B74C4
:0201BB000B76C1
:0201BC000B78BE
:0201BD000B7ABB
:0201BE000B7CB8
:0201BF000B7EB5
:0201C0000B80B2
:0201C1000B82AF
:0201C2000B84AC
:0201C3000B86A9
:0201C4000B88A6
:0201C5000B8AA3
:0201C6000B8CA0
:0201C7000B8E9D
:0201C8000B909A
:0201C9000B9297
:0201CA000B9494
:0201CB000B9691
:0201CC000B988E
:0201CD000B9A8B
:0201CE000B9C88
:0201CF000B9E85
:0201D0000BA082
:0201D1000BA27F
:0201D2000BA47C
:0201D3000BA679
:0201D4000BA876
:0201D5000BAA73
:0201D6000BAC70
:0201D7000BAE6D
:0201D8000BB06A
:0201D9000BB267
:0201DA000BB464
:0201DB000BB661
:0201DC000BB85E
:0201DD000BBA5B
:0201DE000BBC58
:0201DF000BBE55
:0201E0000BC052
:0201E1000BC24F
:0201E2000BC44C
:0201E3000BC649
:0201E4000BC846
:0201E5000BCA43
:0201E6000BCC40
:0201E7000BCE3D
:0201E8000BD03A
:0201E9000BD237
:0201EA000BD434
:0201EB000BD631
:0201EC000BD82E
:0201ED000BDA2B
:0201EE000BDC28
:0201EF000BDE25
:0201F0000BE022
:0201F1000BE21F
:0201F2000BE41C
:0201F3000BE619
:0201F4000BE816
:0201F5000BEA13
:0201F6000BEC10
:0201F7000BEE0D
:0201F8000BF00A
:0201F9000BF207
:0201FA000BF404
:0201FB000BF601
:0201FC000BF8FE
:0201FD000BFAFB
:0201FE000BFCF8
:0201FF000BFEF5
:020200000C00F0
:020201000C02ED
:020202000C04EA
:020203000C06E7
:020204000C08E4
:020205000C0AE1
:020206000C0CDE
:020207000C0EDB
:020208000C10D8
:020209000C12D5
:02020A000C14D2
:02020B000C16CF
:02020C000C18CC
:02020D000C1AC9
:02020E000C1CC6
:02020F000C1EC3
:020210000C20C0
:020211000C22BD
:020212000C24BA
:020213000C26B7
:020214000C28B4
:020215000C2AB1
:020216000C2CAE
:020217000C2EAB
:020218000C30A8
:020219000C32A5
:02021A000C34A2
:02021B000C369F
:02021C000C389C
:02021D000C3A99
:02021E000C3C96
:02021F000C3E93
:020220000C4090
:020221000C428D
:020222000C448A
:020223000C4687
:020224000C4884
:020225000C4A81
:020226000C4C7E
:020227000C4E7B
:020228000C5078
:020229000C5275
:02022A000C5472
:02022B000C566F
:02022C000C586C
:02022D000C5A69
:02022E000C5C66
:02022F000C5E63
:020230000C6060
:020231000C625D
:020232000C645A
:020233000C6657
:020234000C6854
:020235000C6A51
:020236000C6C4E
:020237000C6E4B
:020238000C7048
:020239000C7245
:02023A000C7442
:02023B000C763F
:02023C000C783C
:02023D000C7A39
:02023E000C7C36
:02023F000C7E33
:020240000C8030
:020241000C822D
:020242000C842A
:020243000C8627
:020244000C8824
:020245000C8A21
:020246000C8C1E
:020247000C8E1B
:020248000C9018
:020249000C9215
:02024A000C9412
:02024B000C960F
:02024C000C980C
:02024D000C9A09
:02024E000C9C06
:02024F000C9E03
:020250000CA000
:020251000CA2FD
:020252000CA4FA
:020253000CA6F7
:020254000CA8F4
:020255000CAAF1
:020256000CACEE
:020257000CAEEB
:020258000CB0E8
:020259000CB2E5
:02025A000CB4E2
:02025B000CB6DF
:02025C000CB8DC
:02025D000CBAD9
:02025E000CBCD6
:02025F000CBED3
:020260000CC0D0
:020261000CC2CD
:020262000CC4CA
:020263000CC6C7
:020264000CC8C4
:020265000CCAC1
:020266000CCCBE
:020267000CCEBB
:020268000CD0B8
:020269000CD2B5
:02026A000CD4B2
:02026B000CD6AF
:02026C000CD8AC
:02026D000CDAA9
:02026E000CDCA6
:02026F000CDEA3
:020270000CE0A0
:020271000CE29D
:020272000CE49A
:020273000CE697
:020274000CE894
:020275000CEA91
:020276000CEC8E
:020277000CEE8B
:020278000CF088
:020279000CF285
:02027A000CF482
:02027B000CF67F
:02027C000CF87C
:02027D000CFA79
:02027E000CFC76
:02027F000CFE73
:020280000D006F
:020281000D026C
:020282000D0469
:020283000D0666
:020284000D0863
:020285000D0A60
:020286000D0C5D
:020287000D0E5A
:020288000D1057
:020289000D1254
:02028A000D1451
:02028B000D164E
:02028C000D184B
:02028D000D1A48
:02028E000D1C45
:02028F000D1E42
:020290000D203F
:020291000D223C
:020292000D2439
:020293000D2636
:020294000D2833
:020295000D2A30
:020296000D2C2D
:020297000D2E2A
:020298000D3027
:020299000D3224
:02029A000D3421
:02029B000D361E
:02029C000D381B
:02029D000D3A18
:02029E000D3C15
:02029F000D3E12
:0202A0000D400F
:0202A1000D420C
:0202A2000D4409
:0202A3000D4606
:0202A4000D4803
:0202A5000D4A00
:0202A6000D4CFD
:0202A7000D4EFA
:0202A8000D50F7
:0202A9000D52F4
:0202AA000D54F1
:0202AB000D56EE
:0202AC000D58EB
:0202AD000D5AE8
:0202AE000D5CE5
:0202AF000D5EE2
:0202B0000D60DF
:0202B1000D62DC
:0202B2000D64D9
:0202B3000D66D6
:0202B4000D68D3
:0202B5000D6AD0
:0202B6000D6CCD
:0202B7000D6ECA
:0202B8000D70C7
:0202B9000D72C4
:0202BA000D74C1
:0202BB000D76BE
:0202BC000D78BB
:0202BD000D7AB8
:0202BE000D7CB5
:0202BF000D7EB2
:0202C0000D80AF
:0202C1000D82AC
:0202C2000D84A9
:0202C3000D86A6
:0202C4000D88A3
:0202C5000D8AA0
:0202C6000D8C9D
:0202C7000D8E9A
:0202C8000D9097
:0202C9000D9294
:0202CA000D9491
:0202CB000D968E
:0202CC000D988B
:0202CD000D9A88
:0202CE000D9C85
:0202CF000D9E82
:0202D0000DA07F
:0202D1000DA27C
:0202D2000DA479
:0202D3000DA676
:0202D4000DA873
:0202D5000DAA70
:0202D6000DAC6D
:0202D7000DAE6A
:0202D8000DB067
:0202D9000DB264
:0202DA000DB461
:0202DB000DB65E
:0202DC000DB85B
:0202DD000DBA58
:0202DE000DBC55
:0202DF000DBE52
:0202E0000DC04F
:0202E1000DC24C
:0202E2000DC449
:0202E3000DC646
:0202E4000DC843
:0202E5000DCA40
:0202E6000DCC3D
:0202E7000DCE3A
:0202E8000DD037
:0202E9000DD234
:0202EA000DD431
:0202EB000DD62E
:0202EC000DD82B
:0202ED000DDA28
:0202EE000DDC25
:0202EF000DDE22
:0202F0000DE01F
:0202F1000DE21C
:0202F2000DE419
:0202F3000DE616
:0202F4000DE813
:0202F5000DEA10
:0202F6000DEC0D
:0202F7000DEE0A
:0202F8000DF007
:0202F9000DF204
:0202FA000DF401
:0202FB000DF6FE
:0202FC000DF8FB
:0202FD000DFAF8
:0202FE000DFCF5
:0202FF000DFEF2
:020300000E00ED
:020301000E02EA
:020302000E04E7
:020303000E06E4
:020304000E08E1
:020305000E0ADE
:020306000E0CDB
:020307000E0ED8
:020308000E10D5
:020309000E12D2
:02030A000E14CF
:02030B000E16CC
:02030C000E18C9
:02030D000E1AC6
:02030E000E1CC3
:02030F000E1EC0
:020310000E20BD
:020311000E22BA
:020312000E24B7
:020313000E26B4
:020314000E28B1
:020315000E2AAE
:020316000E2CAB
:020317000E2EA8
:020318000E30A5
:020319000E32A2
:02031A000E349F
:02031B000E369C
:02031C000E3899
:02031D000E3A96
:02031E000E3C93
:02031F000E3E90
:020320000E408D
:020321000E428A
:020322000E4487
:020323000E4684
:020324000E4881
:020325000E4A7E
:020326000E4C7B
:020327000E4E78
:020328000E5075
:020329000E5272
:02032A000E546F
:02032B000E566C
:02032C000E5869
:02032D000E5A66
:02032E000E5C63
:02032F000E5E60
:020330000E605D
:020331000E625A
:020332000E6457
:020333000E6654
:020334000E6851
:020335000E6A4E
:020336000E6C4B
:020337000E6E48
:020338000E7045
:020339000E7242
:02033A000E743F
:02033B000E763C
:02033C000E7839
:02033D000E7A36
:02033E000E7C33
:02033F000E7E30
:020340000E802D
:020341000E822A
:020342000E8427
:020343000E8624
:020344000E8821
:020345000E8A1E
:020346000E8C1B
:020347000E8E18
:020348000E9015
:020349000E9212
:02034A000E940F
:02034B000E960C
:02034C000E9809
:02034D000E9A06
:02034E000E9C03
:02034F000E9E00
:020350000EA0FD
:020351000EA2FA
:020352000EA4F7
:020353000EA6F4
:020354000EA8F1
:020355000EAAEE
:020356000EACEB
:020357000EAEE8
:020358000EB0E5
:020359000EB2E2
:02035A000EB4DF
:02035B000EB6DC
:02035C000EB8D9
:02035D000EBAD6
:02035E000EBCD3
:02035F000EBED0
:020360000EC0CD
:020361000EC2CA
:020362000EC4C7
:020363000EC6C4
:020364000EC8C1
:020365000ECABE
:020366000ECCBB
:020367000ECEB8
:020368000ED0B5
:020369000ED2B2
:02036A000ED4AF
:02036B000ED6AC
:02036C000ED8A9
:02036D000EDAA6
:02036E000EDCA3
:02036F000EDEA0
:020370000EE09D
:020371000EE29A
:020372000EE497
:020373000EE694
:020374000EE891
:020375000EEA8E
:020376000EEC8B
:020377000EEE88
:020378000EF085
:020379000EF282
:02037A000EF47F
:02037B000EF67C
:02037C000EF879
:02037D000EFA76
:02037E000EFC73
:02037F000EFE70
:020380000F006C
:020381000F0269
:020382000F0466
:020383000F0663
:020384000F0860
:020385000F0A5D
:020386000F0C5A
:020387000F0E57
:020388000F1054
:020389000F1251
:02038A000F144E
:02038B000F164B
:02038C000F1848
:02038D000F1A45
:02038E000F1C42
:02038F000F1E3F
:020390000F203C
:020391000F2239
:020392000F2436
:020393000F2633
:020394000F2830
:020395000F2A2D
:020396000F2C2A
:020397000F2E27
:020398000F3024
:020399000F3221
:02039A000F341E
:02039B000F361B
:02039C000F3818
:02039D000F3A15
:02039E000F3C12
:02039F000F3E0F
:0203A0000F400C
:0203A1000F4209
:0203A2000F4406
:0203A3000F4603
:0203A4000F4800
:0203A5000F4AFD
:0203A6000F4CFA
:0203A7000F4EF7
:0203A8000F50F4
:0203A9000F52F1
:0203AA000F54EE
:0203AB000F56EB
:0203AC000F58E8
:0203AD000F5AE5
:0203AE000F5CE2
:0203AF000F5EDF
:0203B0000F60DC
:0203B1000F62D9
:0203B2000F64D6
:0203B3000F66D3
:0203B4000F68D0
:0203B5000F6ACD
:0203B6000F6CCA
:0203B7000F6EC7
:0203B8000F70C4
:0203B9000F72C1
:0203BA000F74BE
:0203BB000F76BB
:0203BC000F78B8
:0203BD000F7AB5
:0203BE000F7CB2
:0203BF000F7EAF
:0203C0000F80AC
:0203C1000F82A9
:0203C2000F84A6
:0203C3000F86A3
:0203C4000F88A0
:0203C5000F8A9D
:0203C6000F8C9A
:0203C7000F8E97
:0203C8000F9094
:0203C9000F9291
:0203CA000F948E
:0203CB000F968B
:0203CC000F9888
:0203CD000F9A85
:0203CE000F9C82
:0203CF000F9E7F
:0203D0000FA07C
:0203D1000FA279
:0203D2000FA476
:0203D3000FA673
:0203D4000FA870
:0203D5000FAA6D
:0203D6000FAC6A
:0203D7000FAE67
:0203D8000FB064
:0203D9000FB261
:0203DA000FB45E
:0203DB000FB65B
:0203DC000FB858
:0203DD000FBA55
:0203DE000FBC52
:0203DF000FBE4F
:0203E0000FC04C
:0203E1000FC249
:0203E2000FC446
:0203E3000FC643
:0203E4000FC840
:0203E5000FCA3D
:0203E6000FCC3A
:0203E7000FCE37
:0203E8000FD034
:0203E9000FD231
:0203EA000FD42E
:0203EB000FD62B
:0203EC000FD828
:0203ED000FDA25
:0203EE000FDC22
:0203EF000FDE1F
:0203F0000FE01C
:0203F1000FE219
:0203F2000FE416
:0203F3000FE613
:0203F4000FE810
:0203F5000FEA0D
:0203F6000FEC0A
:0203F7000FEE07
:0203F8000FF004
:0203F9000FF201
:0203FA000FF4FE
:0203FB000FF6FB
:0203FC000FF8F8
:0203FD000FFAF5
:0203FE000FFCF2
:0203FF000FFEEF
:020400000000FA
:020401000002F7
:020402000004F4
:020403000006F1
:020404000008EE
:02040500000AEB
:02040600000CE8
:02040700000EE5
:020408000010E2
:020409000012DF
:02040A000014DC
:02040B000016D9
:02040C000018D6
:02040D00001AD3
:02040E00001CD0
:02040F00001ECD
:020410000020CA
:020411000022C7
:020412000024C4
:020413000026C1
:020414000028BE
:02041500002ABB
:02041600002CB8
:02041700002EB5
:020418000030B2
:020419000032AF
:02041A000034AC
:02041B000036A9
:02041C000038A6
:02041D00003AA3
:02041E00003CA0
:02041F00003E9D
:0204200000409A
:02042100004297
:02042200004494
:02042300004691
:0204240000488E
:02042500004A8B
:02042600004C88
:02042700004E85
:02042800005082
:0204290000527F
:02042A0000547C
:02042B00005679
:02042C00005876
:02042D00005A73
:02042E00005C70
:02042F00005E6D
:0204300000606A
:02043100006267
:02043200006464
:02043300006661
:0204340000685E
:02043500006A5B
:02043600006C58
:02043700006E55
:02043800007052
:0204390000724F
:02043A0000744C
:02043B00007649
:02043C00007846
:02043D00007A43
:02043E00007C40
:02043F00007E3D
:0204400000803A
:02044100008237
:02044200008434
:02044300008631
:0204440000882E
:02044500008A2B
:02044600008C28
:02044700008E25
:02044800009022
:0204490000921F
:02044A0000941C
:02044B00009619
:02044C00009816
:02044D00009A13
:02044E00009C10
:02044F00009E0D
:0204500000A00A
:0204510000A207
:0204520000A404
:0204530000A601
:0204540000A8FE
:0204550000AAFB
:0204560000ACF8
:0204570000AEF5
:0204580000B0F2
:0204590000B2EF
:02045A0000B4EC
:02045B0000B6E9
:02045C0000B8E6
:02045D0000BAE3
:02045E0000BCE0
:02045F0000BEDD
:0204600000C0DA
:0204610000C2D7
:0204620000C4D4
:0204630000C6D1
:0204640000C8CE
:0204650000CACB
:0204660000CCC8
:0204670000CEC5
:0204680000D0C2
:0204690000D2BF
:02046A0000D4BC
:02046B0000D6B9
:02046C0000D8B6
:02046D0000DAB3
:02046E0000DCB0
:02046F0000DEAD
:0204700000E0AA
:0204710000E2A7
:0204720000E4A4
:0204730000E6A1
:0204740000E89E
:0204750000EA9B
:0204760000EC98
:0204770000EE95
:0204780000F092
:0204790000F28F
:02047A0000F48C
:02047B0000F689
:02047C0000F886
:02047D0000FA83
:02047E0000FC80
:02047F0000FE7D
:02048000010079
:02048100010276
:02048200010473
:02048300010670
:0204840001086D
:02048500010A6A
:02048600010C67
:02048700010E64
:02048800011061
:0204890001125E
:02048A0001145B
:02048B00011658
:02048C00011855
:02048D00011A52
:02048E00011C4F
:02048F00011E4C
:02049000012049
:02049100012246
:02049200012443
:02049300012640
:0204940001283D
:02049500012A3A
:02049600012C37
:02049700012E34
:02049800013031
:0204990001322E
:02049A0001342B
:02049B00013628
:02049C00013825
:02049D00013A22
:02049E00013C1F
:02049F00013E1C
:0204A000014019
:0204A100014216
:0204A200014413
:0204A300014610
:0204A40001480D
:0204A500014A0A
:0204A600014C07
:0204A700014E04
:0204A800015001
:0204A9000152FE
:0204AA000154FB
:0204AB000156F8
:0204AC000158F5
:0204AD00015AF2
:0204AE00015CEF
:0204AF00015EEC
:0204B0000160E9
:0204B1000162E6
:0204B2000164E3
:0204B3000166E0
:0204B4000168DD
:0204B500016ADA
:0204B600016CD7
:0204B700016ED4
:0204B8000170D1
:0204B9000172CE
:0204BA000174CB
:0204BB000176C8
:0204BC000178C5
:0204BD00017AC2
:0204BE00017CBF
:0204BF00017EBC
:0204C0000180B9
:0204C1000182B6
:0204C2000184B3
:0204C3000186B0
:0204C4000188AD
:0204C500018AAA
:0204C600018CA7
:0204C700018EA4
:0204C8000190A1
:0204C90001929E
:0204CA0001949B
:0204CB00019698
:0204CC00019895
:0204CD00019A92
:0204CE00019C8F
:0204CF00019E8C
:0204D00001A089
:0204D10001A286
:0204D20001A483
:0204D30001A680
:0204D40001A87D
:0204D50001AA7A
:0204D60001AC77
:0204D70001AE74
:0204D80001B071
:0204D90001B26E
:0204DA0001B46B
:0204DB0001B668
:0204DC0001B865
:0204DD0001BA62
:0204DE0001BC5F
:0204DF0001BE5C
:0204E00001C059
:0204E10001C256
:0204E20001C453
:0204E30001C650
:0204E40001C84D
:0204E50001CA4A
:0204E60001CC47
:0204E70001CE44
:0204E80001D041
:0204E90001D23E
:0204EA0001D43B
:0204EB0001D638
:0204EC0001D835
:0204ED0001DA32
:0204EE0001DC2F
:0204EF0001DE2C
:0204F00001E029
:0204F10001E226
:0204F20001E423
:0204F30001E620
:0204F40001E81D
:0204F50001EA1A
:0204F60001EC17
:0204F70001EE14
:0204F80001F011
:0204F90001F20E
:0204FA0001F40B
:0204FB0001F608
:0204FC0001F805
:0204FD0001FA02
:0204FE0001FCFF
:0204FF0001FEFC
:020500000200F7
:020501000202F4
:020502000204F1
:020503000206EE
:020504000208EB
:02050500020AE8
:02050600020CE5
:02050700020EE2
:020508000210DF
:020509000212DC
:02050A000214D9
:02050B000216D6
:02050C000218D3
:02050D00021AD0
:02050E00021CCD
:02050F00021ECA
:020510000220C7
:020511000222C4
:020512000224C1
:020513000226BE
:020514000228BB
:02051500022AB8
:02051600022CB5
:02051700022EB2
:020518000230AF
:020519000232AC
:02051A000234A9
:02051B000236A6
:02051C000238A3
:02051D00023AA0
:02051E00023C9D
:02051F00023E9A
:02052000024097
:02052100024294
:02052200024491
:0205230002468E
:0205240002488B
:02052500024A88
:02052600024C85
:02052700024E82
:0205280002507F
:0205290002527C
:02052A00025479
:02052B00025676
:02052C00025873
:02052D00025A70
:02052E00025C6D
:02052F00025E6A
:02053000026067
:02053100026264
:02053200026461
:0205330002665E
:0205340002685B
:02053500026A58
:02053600026C55
:02053700026E52
:0205380002704F
:0205390002724C
:02053A00027449
:02053B00027646
:02053C00027843
:02053D00027A40
:02053E00027C3D
:02053F00027E3A
:02054000028037
:02054100028234
:02054200028431
:0205430002862E
:0205440002882B
:02054500028A28
:02054600028C25
:02054700028E22
:0205480002901F
:0205490002921C
:02054A00029419
:02054B00029616
:02054C00029813
:02054D00029A10
:02054E00029C0D
:02054F00029E0A
:0205500002A007
:0205510002A204
:0205520002A401
:0205530002A6FE
:0205540002A8FB
:0205550002AAF8
:0205560002ACF5
:0205570002AEF2
:0205580002B0EF
:0205590002B2EC
:02055A0002B4E9
:02055B0002B6E6
:02055C0002B8E3
:02055D0002BAE0
:02055E0002BCDD
:02055F0002BEDA
:0205600002C0D7
:0205610002C2D4
:0205620002C4D1
:0205630002C6CE
:0205640002C8CB
:0205650002CAC8
:0205660002CCC5
:0205670002CEC2
:0205680002D0BF
:0205690002D2BC
:02056A0002D4B9
:02056B0002D6B6
:02056C0002D8B3
:02056D0002DAB0
:02056E0002DCAD
:02056F0002DEAA
:0205700002E0A7
:0205710002E2A4
:0205720002E4A1
:0205730002E69E
:0205740002E89B
:0205750002EA98
:0205760002EC95
:0205770002EE92
:0205780002F08F
:0205790002F28C
:02057A0002F489
:02057B0002F686
:02057C0002F883
:02057D0002FA80
:02057E0002FC7D
:02057F0002FE7A
:02058000030076
:02058100030273
:02058200030470
:0205830003066D
:0205840003086A
:02058500030A67
:02058600030C64
:02058700030E61
:0205880003105E
:0205890003125B
:02058A00031458
:02058B00031655
:02058C00031852
:02058D00031A4F
:02058E00031C4C
:02058F00031E49
:02059000032046
:02059100032243
:02059200032440
:0205930003263D
:0205940003283A
:02059500032A37
:02059600032C34
:02059700032E31
:0205980003302E
:0205990003322B
:02059A00033428
:02059B00033625
:02059C00033822
:02059D00033A1F
:02059E00033C1C
:02059F00033E19
:0205A000034016
:0205A100034213
:0205A200034410
:0205A30003460D
:0205A40003480A
:0205A500034A07
:0205A600034C04
:0205A700034E01
:0205A8000350FE
:0205A9000352FB
:0205AA000354F8
:0205AB000356F5
:0205AC000358F2
:0205AD00035AEF
:0205AE00035CEC
:0205AF00035EE9
:0205B0000360E6
:0205B1000362E3
:0205B2000364E0
:0205B3000366DD
:0205B4000368DA
:0205B500036AD7
:0205B600036CD4
:0205B700036ED1
:0205B8000370CE
:0205B9000372CB
:0205BA000374C8
:0205BB000376C5
:0205BC000378C2
:0205BD00037ABF
:0205BE00037CBC
:0205BF00037EB9
:0205C0000380B6
:0205C1000382B3
:0205C2000384B0
:0205C3000386AD
:0205C4000388AA
:0205C500038AA7
:0205C600038CA4
:0205C700038EA1
:0205C80003909E
:0205C90003929B
:0205CA00039498
:0205CB00039695
:0205CC00039892
:0205CD00039A8F
:0205CE00039C8C
:0205CF00039E89
:0205D00003A086
:0205D10003A283
:0205D20003A480
:0205D30003A67D
:0205D40003A87A
:0205D50003AA77
:0205D60003AC74
:0205D70003AE71
:0205D80003B06E
:0205D90003B26B
:0205DA0003B468
:0205DB0003B665
:0205DC0003B862
:0205DD0003BA5F
:0205DE0003BC5C
:0205DF0003BE59
:0205E00003C056
:0205E10003C253
:0205E20003C450
:0205E30003C64D
:0205E40003C84A
:0205E50003CA47
:0205E60003CC44
:0205E70003CE41
:0205E80003D03E
:0205E90003D23B
:0205EA0003D438
:0205EB0003D635
:0205EC0003D832
:0205ED0003DA2F
:0205EE0003DC2C
:0205EF0003DE29
:0205F00003E026
:0205F10003E223
:0205F20003E420
:0205F30003E61D
:0205F40003E81A
:0205F50003EA17
:0205F60003EC14
:0205F70003EE11
:0205F80003F00E
:0205F90003F20B
:0205FA0003F408
:0205FB0003F605
:0205FC0003F802
:0205FD0003FAFF
:0205FE0003FCFC
:0205FF0003FEF9
:020600000400F4
:020601000402F1
:020602000404EE
:020603000406EB
:020604000408E8
:02060500040AE5
:02060600040CE2
:02060700040EDF
:020608000410DC
:020609000412D9
:02060A000414D6
:02060B000416D3
:02060C000418D0
:02060D00041ACD
:02060E00041CCA
:02060F00041EC7
:020610000420C4
:020611000422C1
:020612000424BE
:020613000426BB
:020614000428B8
:02061500042AB5
:02061600042CB2
:02061700042EAF
:020618000430AC
:020619000432A9
:02061A000434A6
:02061B000436A3
:02061C000438A0
:02061D00043A9D
:02061E00043C9A
:02061F00043E97
:02062000044094
:02062100044291
:0206220004448E
:0206230004468B
:02062400044888
:02062500044A85
:02062600044C82
:02062700044E7F
:0206280004507C
:02062900045279
:02062A00045476
:02062B00045673
:02062C00045870
:02062D00045A6D
:02062E00045C6A
:02062F00045E67
:02063000046064
:02063100046261
:0206320004645E
:0206330004665B
:02063400046858
:02063500046A55
:02063600046C52
:02063700046E4F
:0206380004704C
:02063900047249
:02063A00047446
:02063B00047643
:02063C00047840
:02063D00047A3D
:02063E00047C3A
:02063F00047E37
:02064000048034
:02064100048231
:0206420004842E
:0206430004862B
:02064400048828
:02064500048A25
:02064600048C22
:02064700048E1F
:0206480004901C
:02064900049219
:02064A00049416
:02064B00049613
:02064C00049810
:02064D00049A0D
:02064E00049C0A
:02064F00049E07
:0206500004A004
:0206510004A201
:0206520004A4FE
:0206530004A6FB
:0206540004A8F8
:0206550004AAF5
:0206560004ACF2
:0206570004AEEF
:0206580004B0EC
:0206590004B2E9
:02065A0004B4E6
:02065B0004B6E3
:02065C0004B8E0
:02065D0004BADD
:02065E0004BCDA
:02065F0004BED7
:0206600004C0D4
:0206610004C2D1
:0206620004C4CE
:0206630004C6CB
:0206640004C8C8
:0206650004CAC5
:0206660004CCC2
:0206670004CEBF
:0206680004D0BC
:0206690004D2B9
:02066A0004D4B6
:02066B0004D6B3
:02066C0004D8B0
:02066D0004DAAD
:02066E0004DCAA
:02066F0004DEA7
:0206700004E0A4
:0206710004E2A1
:0206720004E49E
:0206730004E69B
:0206740004E898
:0206750004EA95
:0206760004EC92
:0206770004EE8F
:0206780004F08C
:0206790004F289
:02067A0004F486
:02067B0004F683
:02067C0004F880
:02067D0004FA7D
:02067E0004FC7A
:02067F0004FE77
:02068000050073
:02068100050270
:0206820005046D
:0206830005066A
:02068400050867
:02068500050A64
:02068600050C61
:02068700050E5E
:0206880005105B
:02068900051258
:02068A00051455
:02068B00051652
:02068C0005184F
:02068D00051A4C
:02068E00051C49
:02068F00051E46
:02069000052043
:02069100052240
:0206920005243D
:0206930005263A
:02069400052837
:02069500052A34
:02069600052C31
:02069700052E2E
:0206980005302B
:02069900053228
:02069A00053425
:02069B00053622
:02069C0005381F
:02069D00053A1C
:02069E00053C19
:02069F00053E16
:0206A000054013
:0206A100054210
:0206A20005440D
:0206A30005460A
:0206A400054807
:0206A500054A04
:0206A600054C01
:0206A700054EFE
:0206A8000550FB
:0206A9000552F8
:0206AA000554F5
:0206AB000556F2
:0206AC000558EF
:0206AD00055AEC
:0206AE00055CE9
:0206AF00055EE6
:0206B0000560E3
:0206B1000562E0
:0206B2000564DD
:0206B3000566DA
:0206B4000568D7
:0206B500056AD4
:0206B600056CD1
:0206B700056ECE
:0206B8000570CB
:0206B9000572C8
:0206BA000574C5
:0206BB000576C2
:0206BC000578BF
:0206BD00057ABC
:0206BE00057CB9
:0206BF00057EB6
:0206C0000580B3
:0206C1000582B0
:0206C2000584AD
:0206C3000586AA
:0206C4000588A7
:0206C500058AA4
:0206C600058CA1
:0206C700058E9E
:0206C80005909B
:0206C900059298
:0206CA00059495
:0206CB00059692
:0206CC0005988F
:0206CD00059A8C
:0206CE00059C89
:0206CF00059E86
:0206D00005A083
:0206D10005A280
:0206D20005A47D
:0206D30005A67A
:0206D40005A877
:0206D50005AA74
:0206D60005AC71
:0206D70005AE6E
:0206D80005B06B
:0206D90005B268
:0206DA0005B465
:0206DB0005B662
:0206DC0005B85F
:0206DD0005BA5C
:0206DE0005BC59
:0206DF0005BE56
:0206E00005C053
:0206E10005C250
:0206E20005C44D
:0206E30005C64A
:0206E40005C847
:0206E50005CA44
:0206E60005CC41
:0206E70005CE3E
:0206E80005D03B
:0206E90005D238
:0206EA0005D435
:0206EB0005D632
:0206EC0005D82F
:0206ED0005DA2C
:0206EE0005DC29
:0206EF0005DE26
:0206F00005E023
:0206F10005E220
:0206F20005E41D
:0206F30005E61A
:0206F40005E817
:0206F50005EA14
:0206F60005EC11
:0206F70005EE0E
:0206F80005F00B
:0206F90005F208
:0206FA0005F405
:0206FB0005F602
:0206FC0005F8FF
:0206FD0005FAFC
:0206FE0005FCF9
:0206FF0005FEF6
:020700000600F1
:020701000602EE
:020702000604EB
:020703000606E8
:020704000608E5
:02070500060AE2
:02070600060CDF
:02070700060EDC
:020708000610D9
:020709000612D6
:02070A000614D3
:02070B000616D0
:02070C000618CD
:02070D00061ACA
:02070E00061CC7
:02070F00061EC4
:020710000620C1
:020711000622BE
:020712000624BB
:020713000626B8
:020714000628B5
:02071500062AB2
:02071600062CAF
:02071700062EAC
:020718000630A9
:020719000632A6
:02071A000634A3
:02071B000636A0
:02071C0006389D
:02071D00063A9A
:02071E00063C97
:02071F00063E94
:02072000064091
:0207210006428E
:0207220006448B
:02072300064688
:02072400064885
:02072500064A82
:02072600064C7F
:02072700064E7C
:02072800065079
:02072900065276
:02072A00065473
:02072B00065670
:02072C0006586D
:02072D00065A6A
:02072E00065C67
:02072F00065E64
:02073000066061
:0207310006625E
:0207320006645B
:02073300066658
:02073400066855
:02073500066A52
:02073600066C4F
:02073700066E4C
:02073800067049
:02073900067246
:02073A00067443
:02073B00067640
:02073C0006783D
:02073D00067A3A
:02073E00067C37
:02073F00067E34
:02074000068031
:0207410006822E
:0207420006842B
:02074300068628
:02074400068825
:02074500068A22
:02074600068C1F
:02074700068E1C
:02074800069019
:02074900069216
:02074A00069413
:02074B00069610
:02074C0006980D
:02074D00069A0A
:02074E00069C07
:02074F00069E04
:0207500006A001
:0207510006A2FE
:0207520006A4FB
:0207530006A6F8
:0207540006A8F5
:0207550006AAF2
:0207560006ACEF
:0207570006AEEC
:0207580006B0E9
:0207590006B2E6
:02075A0006B4E3
:02075B0006B6E0
:02075C0006B8DD
:02075D0006BADA
:02075E0006BCD7
:02075F0006BED4
:0207600006C0D1
:0207610006C2CE
:0207620006C4CB
:0207630006C6C8
:0207640006C8C5
:0207650006CAC2
:0207660006CCBF
:0207670006CEBC
:0207680006D0B9
:0207690006D2B6
:02076A0006D4B3
:02076B0006D6B0
:02076C0006D8AD
:02076D0006DAAA
:02076E0006DCA7
:02076F0006DEA4
:0207700006E0A1
:0207710006E29E
:0207720006E49B
:0207730006E698
:0207740006E895
:0207750006EA92
:0207760006EC8F
:0207770006EE8C
:0207780006F089
:0207790006F286
:02077A0006F483
:02077B0006F680
:02077C0006F87D
:02077D0006FA7A
:02077E0006FC77
:02077F0006FE74
:02078000070070
:0207810007026D
:0207820007046A
:02078300070667
:02078400070864
:02078500070A61
:02078600070C5E
:02078700070E5B
:02078800071058
:02078900071255
:02078A00071452
:02078B0007164F
:02078C0007184C
:02078D00071A49
:02078E00071C46
:02078F00071E43
:02079000072040
:0207910007223D
:0207920007243A
:02079300072637
:02079400072834
:02079500072A31
:02079600072C2E
:02079700072E2B
:02079800073028
:02079900073225
:02079A00073422
:02079B0007361F
:02079C0007381C
:02079D00073A19
:02079E00073C16
:02079F00073E13
:0207A000074010
:0207A10007420D
:0207A20007440A
:0207A300074607
:0207A400074804
:0207A500074A01
:0207A600074CFE
:0207A700074EFB
:0207A8000750F8
:0207A9000752F5
:0207AA000754F2
:0207AB000756EF
:0207AC000758EC
:0207AD00075AE9
:0207AE00075CE6
:0207AF00075EE3
:0207B0000760E0
:0207B1000762DD
:0207B2000764DA
:0207B3000766D7
:0207B4000768D4
:0207B500076AD1
:0207B600076CCE
:0207B700076ECB
:0207B8000770C8
:0207B9000772C5
:0207BA000774C2
:0207BB000776BF
:0207BC000778BC
:0207BD00077AB9
:0207BE00077CB6
:0207BF00077EB3
:0207C0000780B0
:0207C1000782AD
:0207C2000784AA
:0207C3000786A7
:0207C4000788A4
:0207C500078AA1
:0207C600078C9E
:0207C700078E9B
:0207C800079098
:0207C900079295
:0207CA00079492
:0207CB0007968F
:0207CC0007988C
:0207CD00079A89
:0207CE00079C86
:0207CF00079E83
:0207D00007A080
:0207D10007A27D
:0207D20007A47A
:0207D30007A677
:0207D40007A874
:0207D50007AA71
:0207D60007AC6E
:0207D70007AE6B
:0207D80007B068
:0207D90007B265
:0207DA0007B462
:0207DB0007B65F
:0207DC0007B85C
:0207DD0007BA59
:0207DE0007BC56
:0207DF0007BE53
:0207E00007C050
:0207E10007C24D
:0207E20007C44A
:0207E30007C647
:0207E40007C844
:0207E50007CA41
:0207E60007CC3E
:0207E70007CE3B
:0207E80007D038
:0207E90007D235
:0207EA0007D432
:0207EB0007D62F
:0207EC0007D82C
:0207ED0007DA29
:0207EE0007DC26
:0207EF0007DE23
:0207F00007E020
:0207F10007E21D
:0207F20007E41A
:0207F30007E617
:0207F40007E814
:0207F50007EA11
:0207F60007EC0E
:0207F70007EE0B
:0207F80007F008
:0207F90007F205
:0207FA0007F402
:0207FB0007F6FF
:0207FC0007F8FC
:0207FD0007FAF9
:0207FE0007FCF6
:0207FF0007FEF3
:0208000007FFF0
:0208010007FDF1
:0208020007FBF2
:0208030007F9F3
:0208040007F7F4
:0208050007F5F5
:0208060007F3F6
:0208070007F1F7
:0208080007EFF8
:0208090007EDF9
:02080A0007EBFA
:02080B0007E9FB
:02080C0007E7FC
:02080D0007E5FD
:02080E0007E3FE
:02080F0007E1FF
:0208100007DF00
:0208110007DD01
:0208120007DB02
:0208130007D903
:0208140007D704
:0208150007D505
:0208160007D306
:0208170007D107
:0208180007CF08
:0208190007CD09
:02081A0007CB0A
:02081B0007C90B
:02081C0007C70C
:02081D0007C50D
:02081E0007C30E
:02081F0007C10F
:0208200007BF10
:0208210007BD11
:0208220007BB12
:0208230007B913
:0208240007B714
:0208250007B515
:0208260007B316
:0208270007B117
:0208280007AF18
:0208290007AD19
:02082A0007AB1A
:02082B0007A91B
:02082C0007A71C
:02082D0007A51D
:02082E0007A31E
:02082F0007A11F
:02083000079F20
:02083100079D21
:02083200079B22
:02083300079923
:02083400079724
:02083500079525
:02083600079326
:02083700079127
:02083800078F28
:02083900078D29
:02083A00078B2A
:02083B0007892B
:02083C0007872C
:02083D0007852D
:02083E0007832E
:02083F0007812F
:02084000077F30
:02084100077D31
:02084200077B32
:02084300077933
:02084400077734
:02084500077535
:02084600077336
:02084700077137
:02084800076F38
:02084900076D39
:02084A00076B3A
:02084B0007693B
:02084C0007673C
:02084D0007653D
:02084E0007633E
:02084F0007613F
:02085000075F40
:02085100075D41
:02085200075B42
:02085300075943
:02085400075744
:02085500075545
:02085600075346
:02085700075147
:02085800074F48
:02085900074D49
:02085A00074B4A
:02085B0007494B
:02085C0007474C
:02085D0007454D
:02085E0007434E
:02085F0007414F
:02086000073F50
:02086100073D51
:02086200073B52
:02086300073953
:02086400073754
:02086500073555
:02086600073356
:02086700073157
:02086800072F58
:02086900072D59
:02086A00072B5A
:02086B0007295B
:02086C0007275C
:02086D0007255D
:02086E0007235E
:02086F0007215F
:02087000071F60
:02087100071D61
:02087200071B62
:02087300071963
:02087400071764
:02087500071565
:02087600071366
:02087700071167
:02087800070F68
:02087900070D69
:02087A00070B6A
:02087B0007096B
:02087C0007076C
:02087D0007056D
:02087E0007036E
:02087F0007016F
:0208800006FF71
:0208810006FD72
:0208820006FB73
:0208830006F974
:0208840006F775
:0208850006F576
:0208860006F377
:0208870006F178
:0208880006EF79
:0208890006ED7A
:02088A0006EB7B
:02088B0006E97C
:02088C0006E77D
:02088D0006E57E
:02088E0006E37F
:02088F0006E180
:0208900006DF81
:0208910006DD82
:0208920006DB83
:0208930006D984
:0208940006D785
:0208950006D586
:0208960006D387
:0208970006D188
:0208980006CF89
:0208990006CD8A
:02089A0006CB8B
:02089B0006C98C
:02089C0006C78D
:02089D0006C58E
:02089E0006C38F
:02089F0006C190
:0208A00006BF91
:0208A10006BD92
:0208A20006BB93
:0208A30006B994
:0208A40006B795
:0208A50006B596
:0208A60006B397
:0208A70006B198
:0208A80006AF99
:0208A90006AD9A
:0208AA0006AB9B
:0208AB0006A99C
:0208AC0006A79D
:0208AD0006A59E
:0208AE0006A39F
:0208AF0006A1A0
:0208B000069FA1
:0208B100069DA2
:0208B200069BA3
:0208B3000699A4
:0208B4000697A5
:0208B5000695A6
:0208B6000693A7
:0208B7000691A8
:0208B800068FA9
:0208B900068DAA
:0208BA00068BAB
:0208BB000689AC
:0208BC000687AD
:0208BD000685AE
:0208BE000683AF
:0208BF000681B0
:0208C000067FB1
:0208C100067DB2
:0208C200067BB3
:0208C3000679B4
:0208C4000677B5
:0208C5000675B6
:0208C6000673B7
:0208C7000671B8
:0208C800066FB9
:0208C900066DBA
:0208CA00066BBB
:0208CB000669BC
:0208CC000667BD
:0208CD000665BE
:0208CE000663BF
:0208CF000661C0
:0208D000065FC1
:0208D100065DC2
:0208D200065BC3
:0208D3000659C4
:0208D4000657C5
:0208D5000655C6
:0208D6000653C7
:0208D7000651C8
:0208D800064FC9
:0208D900064DCA
:0208DA00064BCB
:0208DB000649CC
:0208DC000647CD
:0208DD000645CE
:0208DE000643CF
:0208DF000641D0
:0208E000063FD1
:0208E100063DD2
:0208E200063BD3
:0208E3000639D4
:0208E4000637D5
:0208E5000635D6
:0208E6000633D7
:0208E7000631D8
:0208E800062FD9
:0208E900062DDA
:0208EA00062BDB
:0208EB000629DC
:0208EC000627DD
:0208ED000625DE
:0208EE000623DF
:0208EF000621E0
:0208F000061FE1
:0208F100061DE2
:0208F200061BE3
:0208F3000619E4
:0208F4000617E5
:0208F5000615E6
:0208F6000613E7
:0208F7000611E8
:0208F800060FE9
:0208F900060DEA
:0208FA00060BEB
:0208FB000609EC
:0208FC000607ED
:0208FD000605EE
:0208FE000603EF
:0208FF000601F0
:0209000005FFF1
:0209010005FDF2
:0209020005FBF3
:0209030005F9F4
:0209040005F7F5
:0209050005F5F6
:0209060005F3F7
:0209070005F1F8
:0209080005EFF9
:0209090005EDFA
:02090A0005EBFB
:02090B0005E9FC
:02090C0005E7FD
:02090D0005E5FE
:02090E0005E3FF
:02090F0005E100
:0209100005DF01
:0209110005DD02
:0209120005DB03
:0209130005D904
:0209140005D705
:0209150005D506
:0209160005D307
:0209170005D108
:0209180005CF09
:0209190005CD0A
:02091A0005CB0B
:02091B0005C90C
:02091C0005C70D
:02091D0005C50E
:02091E0005C30F
:02091F0005C110
:0209200005BF11
:0209210005BD12
:0209220005BB13
:0209230005B914
:0209240005B715
:0209250005B516
:0209260005B317
:0209270005B118
:0209280005AF19
:0209290005AD1A
:02092A0005AB1B
:02092B0005A91C
:02092C0005A71D
:02092D0005A51E
:02092E0005A31F
:02092F0005A120
:02093000059F21
:02093100059D22
:02093200059B23
:02093300059924
:02093400059725
:02093500059526
:02093600059327
:02093700059128
:02093800058F29
:02093900058D2A
:02093A00058B2B
:02093B0005892C
:02093C0005872D
:02093D0005852E
:02093E0005832F
:02093F00058130
:02094000057F31
:02094100057D32
:02094200057B33
:02094300057934
:02094400057735
:02094500057536
:02094600057337
:02094700057138
:02094800056F39
:02094900056D3A
:02094A00056B3B
:02094B0005693C
:02094C0005673D
:02094D0005653E
:02094E0005633F
:02094F00056140
:02095000055F41
:02095100055D42
:02095200055B43
:02095300055944
:02095400055745
:02095500055546
:02095600055347
:02095700055148
:02095800054F49
:02095900054D4A
:02095A00054B4B
:02095B0005494C
:02095C0005474D
:02095D0005454E
:02095E0005434F
:02095F00054150
:02096000053F51
:02096100053D52
:02096200053B53
:02096300053954
:02096400053755
:02096500053556
:02096600053357
:02096700053158
:02096800052F59
:02096900052D5A
:02096A00052B5B
:02096B0005295C
:02096C0005275D
:02096D0005255E
:02096E0005235F
:02096F00052160
:02097000051F61
:02097100051D62
:02097200051B63
:02097300051964
:02097400051765
:02097500051566
:02097600051367
:02097700051168
:02097800050F69
:02097900050D6A
:02097A00050B6B
:02097B0005096C
:02097C0005076D
:02097D0005056E
:02097E0005036F
:02097F00050170
:0209800004FF72
:0209810004FD73
:0209820004FB74
:0209830004F975
:0209840004F776
:0209850004F577
:0209860004F378
:0209870004F179
:0209880004EF7A
:0209890004ED7B
:02098A0004EB7C
:02098B0004E97D
:02098C0004E77E
:02098D0004E57F
:02098E0004E380
:02098F0004E181
:0209900004DF82
:0209910004DD83
:0209920004DB84
:0209930004D985
:0209940004D786
:0209950004D587
:0209960004D388
:0209970004D189
:0209980004CF8A
:0209990004CD8B
:02099A0004CB8C
:02099B0004C98D
:02099C0004C78E
:02099D0004C58F
:02099E0004C390
:02099F0004C191
:0209A00004BF92
:0209A10004BD93
:0209A20004BB94
:0209A30004B995
:0209A40004B796
:0209A50004B597
:0209A60004B398
:0209A70004B199
:0209A80004AF9A
:0209A90004AD9B
:0209AA0004AB9C
:0209AB0004A99D
:0209AC0004A79E
:0209AD0004A59F
:0209AE0004A3A0
:0209AF0004A1A1
:0209B000049FA2
:0209B100049DA3
:0209B200049BA4
:0209B3000499A5
:0209B4000497A6
:0209B5000495A7
:0209B6000493A8
:0209B7000491A9
:0209B800048FAA
:0209B900048DAB
:0209BA00048BAC
:0209BB000489AD
:0209BC000487AE
:0209BD000485AF
:0209BE000483B0
:0209BF000481B1
:0209C000047FB2
:0209C100047DB3
:0209C200047BB4
:0209C3000479B5
:0209C4000477B6
:0209C5000475B7
:0209C6000473B8
:0209C7000471B9
:0209C800046FBA
:0209C900046DBB
:0209CA00046BBC
:0209CB000469BD
:0209CC000467BE
:0209CD000465BF
:0209CE000463C0
:0209CF000461C1
:0209D000045FC2
:0209D100045DC3
:0209D200045BC4
:0209D3000459C5
:0209D4000457C6
:0209D5000455C7
:0209D6000453C8
:0209D7000451C9
:0209D800044FCA
:0209D900044DCB
:0209DA00044BCC
:0209DB000449CD
:0209DC000447CE
:0209DD000445CF
:0209DE000443D0
:0209DF000441D1
:0209E000043FD2
:0209E100043DD3
:0209E200043BD4
:0209E3000439D5
:0209E4000437D6
:0209E5000435D7
:0209E6000433D8
:0209E7000431D9
:0209E800042FDA
:0209E900042DDB
:0209EA00042BDC
:0209EB000429DD
:0209EC000427DE
:0209ED000425DF
:0209EE000423E0
:0209EF000421E1
:0209F000041FE2
:0209F100041DE3
:0209F200041BE4
:0209F3000419E5
:0209F4000417E6
:0209F5000415E7
:0209F6000413E8
:0209F7000411E9
:0209F800040FEA
:0209F900040DEB
:0209FA00040BEC
:0209FB000409ED
:0209FC000407EE
:0209FD000405EF
:0209FE000403F0
:0209FF000401F1
:020A000003FFF2
:020A010003FDF3
:020A020003FBF4
:020A030003F9F5
:020A040003F7F6
:020A050003F5F7
:020A060003F3F8
:020A070003F1F9
:020A080003EFFA
:020A090003EDFB
:020A0A0003EBFC
:020A0B0003E9FD
:020A0C0003E7FE
:020A0D0003E5FF
:020A0E0003E300
:020A0F0003E101
:020A100003DF02
:020A110003DD03
:020A120003DB04
:020A130003D905
:020A140003D706
:020A150003D507
:020A160003D308
:020A170003D109
:020A180003CF0A
:020A190003CD0B
:020A1A0003CB0C
:020A1B0003C90D
:020A1C0003C70E
:020A1D0003C50F
:020A1E0003C310
:020A1F0003C111
:020A200003BF12
:020A210003BD13
:020A220003BB14
:020A230003B915
:020A240003B716
:020A250003B517
:020A260003B318
:020A270003B119
:020A280003AF1A
:020A290003AD1B
:020A2A0003AB1C
:020A2B0003A91D
:020A2C0003A71E
:020A2D0003A51F
:020A2E0003A320
:020A2F0003A121
:020A3000039F22
:020A3100039D23
:020A3200039B24
:020A3300039925
:020A3400039726
:020A3500039527
:020A3600039328
:020A3700039129
:020A3800038F2A
:020A3900038D2B
:020A3A00038B2C
:020A3B0003892D
:020A3C0003872E
:020A3D0003852F
:020A3E00038330
:020A3F00038131
:020A4000037F32
:020A4100037D33
:020A4200037B34
:020A4300037935
:020A4400037736
:020A4500037537
:020A4600037338
:020A4700037139
:020A4800036F3A
:020A4900036D3B
:020A4A00036B3C
:020A4B0003693D
:020A4C0003673E
:020A4D0003653F
:020A4E00036340
:020A4F00036141
:020A5000035F42
:020A5100035D43
:020A5200035B44
:020A5300035945
:020A5400035746
:020A5500035547
:020A5600035348
:020A5700035149
:020A5800034F4A
:020A5900034D4B
:020A5A00034B4C
:020A5B0003494D
:020A5C0003474E
:020A5D0003454F
:020A5E00034350
:020A5F00034151
:020A6000033F52
:020A6100033D53
:020A6200033B54
:020A6300033955
:020A6400033756
:020A6500033557
:020A6600033358
:020A6700033159
:020A6800032F5A
:020A6900032D5B
:020A6A00032B5C
:020A6B0003295D
:020A6C0003275E
:020A6D0003255F
:020A6E00032360
:020A6F00032161
:020A7000031F62
:020A7100031D63
:020A7200031B64
:020A7300031965
:020A7400031766
:020A7500031567
:020A7600031368
:020A7700031169
:020A7800030F6A
:020A7900030D6B
:020A7A00030B6C
:020A7B0003096D
:020A7C0003076E
:020A7D0003056F
:020A7E00030370
:020A7F00030171
:020A800002FF73
:020A810002FD74
:020A820002FB75
:020A830002F976
:020A840002F777
:020A850002F578
:020A860002F379
:020A870002F17A
:020A880002EF7B
:020A890002ED7C
:020A8A0002EB7D
:020A8B0002E97E
:020A8C0002E77F
:020A8D0002E580
:020A8E0002E381
:020A8F0002E182
:020A900002DF83
:020A910002DD84
:020A920002DB85
:020A930002D986
:020A940002D787
:020A950002D588
:020A960002D389
:020A970002D18A
:020A980002CF8B
:020A990002CD8C
:020A9A0002CB8D
:020A9B0002C98E
:020A9C0002C78F
:020A9D0002C590
:020A9E0002C391
:020A9F0002C192
:020AA00002BF93
:020AA10002BD94
:020AA20002BB95
:020AA30002B996
:020AA40002B797
:020AA50002B598
:020AA60002B399
:020AA70002B19A
:020AA80002AF9B
:020AA90002AD9C
:020AAA0002AB9D
:020AAB0002A99E
:020AAC0002A79F
:020AAD0002A5A0
:020AAE0002A3A1
:020AAF0002A1A2
:020AB000029FA3
:020AB100029DA4
:020AB200029BA5
:020AB3000299A6
:020AB4000297A7
:020AB5000295A8
:020AB6000293A9
:020AB7000291AA
:020AB800028FAB
:020AB900028DAC
:020ABA00028BAD
:020ABB000289AE
:020ABC000287AF
:020ABD000285B0
:020ABE000283B1
:020ABF000281B2
:020AC000027FB3
:020AC100027DB4
:020AC200027BB5
:020AC3000279B6
:020AC4000277B7
:020AC5000275B8
:020AC6000273B9
:020AC7000271BA
:020AC800026FBB
:020AC900026DBC
:020ACA00026BBD
:020ACB000269BE
:020ACC000267BF
:020ACD000265C0
:020ACE000263C1
:020ACF000261C2
:020AD000025FC3
:020AD100025DC4
:020AD200025BC5
:020AD3000259C6
:020AD4000257C7
:020AD5000255C8
:020AD6000253C9
:020AD7000251CA
:020AD800024FCB
:020AD900024DCC
:020ADA00024BCD
:020ADB000249CE
:020ADC000247CF
:020ADD000245D0
:020ADE000243D1
:020ADF000241D2
:020AE000023FD3
:020AE100023DD4
:020AE200023BD5
:020AE3000239D6
:020AE4000237D7
:020AE5000235D8
:020AE6000233D9
:020AE7000231DA
:020AE800022FDB
:020AE900022DDC
:020AEA00022BDD
:020AEB000229DE
:020AEC000227DF
:020AED000225E0
:020AEE000223E1
:020AEF000221E2
:020AF000021FE3
:020AF100021DE4
:020AF200021BE5
:020AF3000219E6
:020AF4000217E7
:020AF5000215E8
:020AF6000213E9
:020AF7000211EA
:020AF800020FEB
:020AF900020DEC
:020AFA00020BED
:020AFB000209EE
:020AFC000207EF
:020AFD000205F0
:020AFE000203F1
:020AFF000201F2
:020B000001FFF3
:020B010001FDF4
:020B020001FBF5
:020B030001F9F6
:020B040001F7F7
:020B050001F5F8
:020B060001F3F9
:020B070001F1FA
:020B080001EFFB
:020B090001EDFC
:020B0A0001EBFD
:020B0B0001E9FE
:020B0C0001E7FF
:020B0D0001E500
:020B0E0001E301
:020B0F0001E102
:020B100001DF03
:020B110001DD04
:020B120001DB05
:020B130001D906
:020B140001D707
:020B150001D508
:020B160001D309
:020B170001D10A
:020B180001CF0B
:020B190001CD0C
:020B1A0001CB0D
:020B1B0001C90E
:020B1C0001C70F
:020B1D0001C510
:020B1E0001C311
:020B1F0001C112
:020B200001BF13
:020B210001BD14
:020B220001BB15
:020B230001B916
:020B240001B717
:020B250001B518
:020B260001B319
:020B270001B11A
:020B280001AF1B
:020B290001AD1C
:020B2A0001AB1D
:020B2B0001A91E
:020B2C0001A71F
:020B2D0001A520
:020B2E0001A321
:020B2F0001A122
:020B3000019F23
:020B3100019D24
:020B3200019B25
:020B3300019926
:020B3400019727
:020B3500019528
:020B3600019329
:020B370001912A
:020B3800018F2B
:020B3900018D2C
:020B3A00018B2D
:020B3B0001892E
:020B3C0001872F
:020B3D00018530
:020B3E00018331
:020B3F00018132
:020B4000017F33
:020B4100017D34
:020B4200017B35
:020B4300017936
:020B4400017737
:020B4500017538
:020B4600017339
:020B470001713A
:020B4800016F3B
:020B4900016D3C
:020B4A00016B3D
:020B4B0001693E
:020B4C0001673F
:020B4D00016540
:020B4E00016341
:020B4F00016142
:020B5000015F43
:020B5100015D44
:020B5200015B45
:020B5300015946
:020B5400015747
:020B5500015548
:020B5600015349
:020B570001514A
:020B5800014F4B
:020B5900014D4C
:020B5A00014B4D
:020B5B0001494E
:020B5C0001474F
:020B5D00014550
:020B5E00014351
:020B5F00014152
:020B6000013F53
:020B6100013D54
:020B6200013B55
:020B6300013956
:020B6400013757
:020B6500013558
:020B6600013359
:020B670001315A
:020B6800012F5B
:020B6900012D5C
:020B6A00012B5D
:020B6B0001295E
:020B6C0001275F
:020B6D00012560
:020B6E00012361
:020B6F00012162
:020B7000011F63
:020B7100011D64
:020B7200011B65
:020B7300011966
:020B7400011767
:020B7500011568
:020B7600011369
:020B770001116A
:020B7800010F6B
:020B7900010D6C
:020B7A00010B6D
:020B7B0001096E
:020B7C0001076F
:020B7D00010570
:020B7E00010371
:020B7F00010172
:020B800000FF74
:020B810000FD75
:020B820000FB76
:020B830000F977
:020B840000F778
:020B850000F579
:020B860000F37A
:020B870000F17B
:020B880000EF7C
:020B890000ED7D
:020B8A0000EB7E
:020B8B0000E97F
:020B8C0000E780
:020B8D0000E581
:020B8E0000E382
:020B8F0000E183
:020B900000DF84
:020B910000DD85
:020B920000DB86
:020B930000D987
:020B940000D788
:020B950000D589
:020B960000D38A
:020B970000D18B
:020B980000CF8C
:020B990000CD8D
:020B9A0000CB8E
:020B9B0000C98F
:020B9C0000C790
:020B9D0000C591
:020B9E0000C392
:020B9F0000C193
:020BA00000BF94
:020BA10000BD95
:020BA20000BB96
:020BA30000B997
:020BA40000B798
:020BA50000B599
:020BA60000B39A
:020BA70000B19B
:020BA80000AF9C
:020BA90000AD9D
:020BAA0000AB9E
:020BAB0000A99F
:020BAC0000A7A0
:020BAD0000A5A1
:020BAE0000A3A2
:020BAF0000A1A3
:020BB000009FA4
:020BB100009DA5
:020BB200009BA6
:020BB3000099A7
:020BB4000097A8
:020BB5000095A9
:020BB6000093AA
:020BB7000091AB
:020BB800008FAC
:020BB900008DAD
:020BBA00008BAE
:020BBB000089AF
:020BBC000087B0
:020BBD000085B1
:020BBE000083B2
:020BBF000081B3
:020BC000007FB4
:020BC100007DB5
:020BC200007BB6
:020BC3000079B7
:020BC4000077B8
:020BC5000075B9
:020BC6000073BA
:020BC7000071BB
:020BC800006FBC
:020BC900006DBD
:020BCA00006BBE
:020BCB000069BF
:020BCC000067C0
:020BCD000065C1
:020BCE000063C2
:020BCF000061C3
:020BD000005FC4
:020BD100005DC5
:020BD200005BC6
:020BD3000059C7
:020BD4000057C8
:020BD5000055C9
:020BD6000053CA
:020BD7000051CB
:020BD800004FCC
:020BD900004DCD
:020BDA00004BCE
:020BDB000049CF
:020BDC000047D0
:020BDD000045D1
:020BDE000043D2
:020BDF000041D3
:020BE000003FD4
:020BE100003DD5
:020BE200003BD6
:020BE3000039D7
:020BE4000037D8
:020BE5000035D9
:020BE6000033DA
:020BE7000031DB
:020BE800002FDC
:020BE900002DDD
:020BEA00002BDE
:020BEB000029DF
:020BEC000027E0
:020BED000025E1
:020BEE000023E2
:020BEF000021E3
:020BF000001FE4
:020BF100001DE5
:020BF200001BE6
:020BF3000019E7
:020BF4000017E8
:020BF5000015E9
:020BF6000013EA
:020BF7000011EB
:020BF800000FEC
:020BF900000DED
:020BFA00000BEE
:020BFB000009EF
:020BFC000007F0
:020BFD000005F1
:020BFE000003F2
:020BFF000001F3
:020C00000FFFE4
:020C01000FFDE5
:020C02000FFBE6
:020C03000FF9E7
:020C04000FF7E8
:020C05000FF5E9
:020C06000FF3EA
:020C07000FF1EB
:020C08000FEFEC
:020C09000FEDED
:020C0A000FEBEE
:020C0B000FE9EF
:020C0C000FE7F0
:020C0D000FE5F1
:020C0E000FE3F2
:020C0F000FE1F3
:020C10000FDFF4
:020C11000FDDF5
:020C12000FDBF6
:020C13000FD9F7
:020C14000FD7F8
:020C15000FD5F9
:020C16000FD3FA
:020C17000FD1FB
:020C18000FCFFC
:020C19000FCDFD
:020C1A000FCBFE
:020C1B000FC9FF
:020C1C000FC700
:020C1D000FC501
:020C1E000FC302
:020C1F000FC103
:020C20000FBF04
:020C21000FBD05
:020C22000FBB06
:020C23000FB907
:020C24000FB708
:020C25000FB509
:020C26000FB30A
:020C27000FB10B
:020C28000FAF0C
:020C29000FAD0D
:020C2A000FAB0E
:020C2B000FA90F
:020C2C000FA710
:020C2D000FA511
:020C2E000FA312
:020C2F000FA113
:020C30000F9F14
:020C31000F9D15
:020C32000F9B16
:020C33000F9917
:020C34000F9718
:020C35000F9519
:020C36000F931A
:020C37000F911B
:020C38000F8F1C
:020C39000F8D1D
:020C3A000F8B1E
:020C3B000F891F
:020C3C000F8720
:020C3D000F8521
:020C3E000F8322
:020C3F000F8123
:020C40000F7F24
:020C41000F7D25
:020C42000F7B26
:020C43000F7927
:020C44000F7728
:020C45000F7529
:020C46000F732A
:020C47000F712B
:020C48000F6F2C
:020C49000F6D2D
:020C4A000F6B2E
:020C4B000F692F
:020C4C000F6730
:020C4D000F6531
:020C4E000F6332
:020C4F000F6133
:020C50000F5F34
:020C51000F5D35
:020C52000F5B36
:020C53000F5937
:020C54000F5738
:020C55000F5539
:020C56000F533A
:020C57000F513B
:020C58000F4F3C
:020C59000F4D3D
:020C5A000F4B3E
:020C5B000F493F
:020C5C000F4740
:020C5D000F4541
:020C5E000F4342
:020C5F000F4143
:020C60000F3F44
:020C61000F3D45
:020C62000F3B46
:020C63000F3947
:020C64000F3748
:020C65000F3549
:020C66000F334A
:020C67000F314B
:020C68000F2F4C
:020C69000F2D4D
:020C6A000F2B4E
:020C6B000F294F
:020C6C000F2750
:020C6D000F2551
:020C6E000F2352
:020C6F000F2153
:020C70000F1F54
:020C71000F1D55
:020C72000F1B56
:020C73000F1957
:020C74000F1758
:020C75000F1559
:020C76000F135A
:020C77000F115B
:020C78000F0F5C
:020C79000F0D5D
:020C7A000F0B5E
:020C7B000F095F
:020C7C000F0760
:020C7D000F0561
:020C7E000F0362
:020C7F000F0163
:020C80000EFF65
:020C81000EFD66
:020C82000EFB67
:020C83000EF968
:020C84000EF769
:020C85000EF56A
:020C86000EF36B
:020C87000EF16C
:020C88000EEF6D
:020C89000EED6E
:020C8A000EEB6F
:020C8B000EE970
:020C8C000EE771
:020C8D000EE572
:020C8E000EE373
:020C8F000EE174
:020C90000EDF75
:020C91000EDD76
:020C92000EDB77
:020C93000ED978
:020C94000ED779
:020C95000ED57A
:020C96000ED37B
:020C97000ED17C
:020C98000ECF7D
:020C99000ECD7E
:020C9A000ECB7F
:020C9B000EC980
:020C9C000EC781
:020C9D000EC582
:020C9E000EC383
:020C9F000EC184
:020CA0000EBF85
:020CA1000EBD86
:020CA2000EBB87
:020CA3000EB988
:020CA4000EB789
:020CA5000EB58A
:020CA6000EB38B
:020CA7000EB18C
:020CA8000EAF8D
:020CA9000EAD8E
:020CAA000EAB8F
:020CAB000EA990
:020CAC000EA791
:020CAD000EA592
:020CAE000EA393
:020CAF000EA194
:020CB0000E9F95
:020CB1000E9D96
:020CB2000E9B97
:020CB3000E9998
:020CB4000E9799
:020CB5000E959A
:020CB6000E939B
:020CB7000E919C
:020CB8000E8F9D
:020CB9000E8D9E
:020CBA000E8B9F
:020CBB000E89A0
:020CBC000E87A1
:020CBD000E85A2
:020CBE000E83A3
:020CBF000E81A4
:020CC0000E7FA5
:020CC1000E7DA6
:020CC2000E7BA7
:020CC3000E79A8
:020CC4000E77A9
:020CC5000E75AA
:020CC6000E73AB
:020CC7000E71AC
:020CC8000E6FAD
:020CC9000E6DAE
:020CCA000E6BAF
:020CCB000E69B0
:020CCC000E67B1
:020CCD000E65B2
:020CCE000E63B3
:020CCF000E61B4
:020CD0000E5FB5
:020CD1000E5DB6
:020CD2000E5BB7
:020CD3000E59B8
:020CD4000E57B9
:020CD5000E55BA
:020CD6000E53BB
:020CD7000E51BC
:020CD8000E4FBD
:020CD9000E4DBE
:020CDA000E4BBF
:020CDB000E49C0
:020CDC000E47C1
:020CDD000E45C2
:020CDE000E43C3
:020CDF000E41C4
:020CE0000E3FC5
:020CE1000E3DC6
:020CE2000E3BC7
:020CE3000E39C8
:020CE4000E37C9
:020CE5000E35CA
:020CE6000E33CB
:020CE7000E31CC
:020CE8000E2FCD
:020CE9000E2DCE
:020CEA000E2BCF
:020CEB000E29D0
:020CEC000E27D1
:020CED000E25D2
:020CEE000E23D3
:020CEF000E21D4
:020CF0000E1FD5
:020CF1000E1DD6
:020CF2000E1BD7
:020CF3000E19D8
:020CF4000E17D9
:020CF5000E15DA
:020CF6000E13DB
:020CF7000E11DC
:020CF8000E0FDD
:020CF9000E0DDE
:020CFA000E0BDF
:020CFB000E09E0
:020CFC000E07E1
:020CFD000E05E2
:020CFE000E03E3
:020CFF000E01E4
:020D00000DFFE5
:020D01000DFDE6
:020D02000DFBE7
:020D03000DF9E8
:020D04000DF7E9
:020D05000DF5EA
:020D06000DF3EB
:020D07000DF1EC
:020D08000DEFED
:020D09000DEDEE
:020D0A000DEBEF
:020D0B000DE9F0
:020D0C000DE7F1
:020D0D000DE5F2
:020D0E000DE3F3
:020D0F000DE1F4
:020D10000DDFF5
:020D11000DDDF6
:020D12000DDBF7
:020D13000DD9F8
:020D14000DD7F9
:020D15000DD5FA
:020D16000DD3FB
:020D17000DD1FC
:020D18000DCFFD
:020D19000DCDFE
:020D1A000DCBFF
:020D1B000DC900
:020D1C000DC701
:020D1D000DC502
:020D1E000DC303
:020D1F000DC104
:020D20000DBF05
:020D21000DBD06
:020D22000DBB07
:020D23000DB908
:020D24000DB709
:020D25000DB50A
:020D26000DB30B
:020D27000DB10C
:020D28000DAF0D
:020D29000DAD0E
:020D2A000DAB0F
:020D2B000DA910
:020D2C000DA711
:020D2D000DA512
:020D2E000DA313
:020D2F000DA114
:020D30000D9F15
:020D31000D9D16
:020D32000D9B17
:020D33000D9918
:020D34000D9719
:020D35000D951A
:020D36000D931B
:020D37000D911C
:020D38000D8F1D
:020D39000D8D1E
:020D3A000D8B1F
:020D3B000D8920
:020D3C000D8721
:020D3D000D8522
:020D3E000D8323
:020D3F000D8124
:020D40000D7F25
:020D41000D7D26
:020D42000D7B27
:020D43000D7928
:020D44000D7729
:020D45000D752A
:020D46000D732B
:020D47000D712C
:020D48000D6F2D
:020D49000D6D2E
:020D4A000D6B2F
:020D4B000D6930
:020D4C000D6731
:020D4D000D6532
:020D4E000D6333
:020D4F000D6134
:020D50000D5F35
:020D51000D5D36
:020D52000D5B37
:020D53000D5938
:020D54000D5739
:020D55000D553A
:020D56000D533B
:020D57000D513C
:020D58000D4F3D
:020D59000D4D3E
:020D5A000D4B3F
:020D5B000D4940
:020D5C000D4741
:020D5D000D4542
:020D5E000D4343
:020D5F000D4144
:020D60000D3F45
:020D61000D3D46
:020D62000D3B47
:020D63000D3948
:020D64000D3749
:020D65000D354A
:020D66000D334B
:020D67000D314C
:020D68000D2F4D
:020D69000D2D4E
:020D6A000D2B4F
:020D6B000D2950
:020D6C000D2751
:020D6D000D2552
:020D6E000D2353
:020D6F000D2154
:020D70000D1F55
:020D71000D1D56
:020D72000D1B57
:020D73000D1958
:020D74000D1759
:020D75000D155A
:020D76000D135B
:020D77000D115C
:020D78000D0F5D
:020D79000D0D5E
:020D7A000D0B5F
:020D7B000D0960
:020D7C000D0761
:020D7D000D0562
:020D7E000D0363
:020D7F000D0164
:020D80000CFF66
:020D81000CFD67
:020D82000CFB68
:020D83000CF969
:020D84000CF76A
:020D85000CF56B
:020D86000CF36C
:020D87000CF16D
:020D88000CEF6E
:020D89000CED6F
:020D8A000CEB70
:020D8B000CE971
:020D8C000CE772
:020D8D000CE573
:020D8E000CE374
:020D8F000CE175
:020D90000CDF76
:020D91000CDD77
:020D92000CDB78
:020D93000CD979
:020D94000CD77A
:020D95000CD57B
:020D96000CD37C
:020D97000CD17D
:020D98000CCF7E
:020D99000CCD7F
:020D9A000CCB80
:020D9B000CC981
:020D9C000CC782
:020D9D000CC583
:020D9E000CC384
:020D9F000CC185
:020DA0000CBF86
:020DA1000CBD87
:020DA2000CBB88
:020DA3000CB989
:020DA4000CB78A
:020DA5000CB58B
:020DA6000CB38C
:020DA7000CB18D
:020DA8000CAF8E
:020DA9000CAD8F
:020DAA000CAB90
:020DAB000CA991
:020DAC000CA792
:020DAD000CA593
:020DAE000CA394
:020DAF000CA195
:020DB0000C9F96
:020DB1000C9D97
:020DB2000C9B98
:020DB3000C9999
:020DB4000C979A
:020DB5000C959B
:020DB6000C939C
:020DB7000C919D
:020DB8000C8F9E
:020DB9000C8D9F
:020DBA000C8BA0
:020DBB000C89A1
:020DBC000C87A2
:020DBD000C85A3
:020DBE000C83A4
:020DBF000C81A5
:020DC0000C7FA6
:020DC1000C7DA7
:020DC2000C7BA8
:020DC3000C79A9
:020DC4000C77AA
:020DC5000C75AB
:020DC6000C73AC
:020DC7000C71AD
:020DC8000C6FAE
:020DC9000C6DAF
:020DCA000C6BB0
:020DCB000C69B1
:020DCC000C67B2
:020DCD000C65B3
:020DCE000C63B4
:020DCF000C61B5
:020DD0000C5FB6
:020DD1000C5DB7
:020DD2000C5BB8
:020DD3000C59B9
:020DD4000C57BA
:020DD5000C55BB
:020DD6000C53BC
:020DD7000C51BD
:020DD8000C4FBE
:020DD9000C4DBF
:020DDA000C4BC0
:020DDB000C49C1
:020DDC000C47C2
:020DDD000C45C3
:020DDE000C43C4
:020DDF000C41C5
:020DE0000C3FC6
:020DE1000C3DC7
:020DE2000C3BC8
:020DE3000C39C9
:020DE4000C37CA
:020DE5000C35CB
:020DE6000C33CC
:020DE7000C31CD
:020DE8000C2FCE
:020DE9000C2DCF
:020DEA000C2BD0
:020DEB000C29D1
:020DEC000C27D2
:020DED000C25D3
:020DEE000C23D4
:020DEF000C21D5
:020DF0000C1FD6
:020DF1000C1DD7
:020DF2000C1BD8
:020DF3000C19D9
:020DF4000C17DA
:020DF5000C15DB
:020DF6000C13DC
:020DF7000C11DD
:020DF8000C0FDE
:020DF9000C0DDF
:020DFA000C0BE0
:020DFB000C09E1
:020DFC000C07E2
:020DFD000C05E3
:020DFE000C03E4
:020DFF000C01E5
:020E00000BFFE6
:020E01000BFDE7
:020E02000BFBE8
:020E03000BF9E9
:020E04000BF7EA
:020E05000BF5EB
:020E06000BF3EC
:020E07000BF1ED
:020E08000BEFEE
:020E09000BEDEF
:020E0A000BEBF0
:020E0B000BE9F1
:020E0C000BE7F2
:020E0D000BE5F3
:020E0E000BE3F4
:020E0F000BE1F5
:020E10000BDFF6
:020E11000BDDF7
:020E12000BDBF8
:020E13000BD9F9
:020E14000BD7FA
:020E15000BD5FB
:020E16000BD3FC
:020E17000BD1FD
:020E18000BCFFE
:020E19000BCDFF
:020E1A000BCB00
:020E1B000BC901
:020E1C000BC702
:020E1D000BC503
:020E1E000BC304
:020E1F000BC105
:020E20000BBF06
:020E21000BBD07
:020E22000BBB08
:020E23000BB909
:020E24000BB70A
:020E25000BB50B
:020E26000BB30C
:020E27000BB10D
:020E28000BAF0E
:020E29000BAD0F
:020E2A000BAB10
:020E2B000BA911
:020E2C000BA712
:020E2D000BA513
:020E2E000BA314
:020E2F000BA115
:020E30000B9F16
:020E31000B9D17
:020E32000B9B18
:020E33000B9919
:020E34000B971A
:020E35000B951B
:020E36000B931C
:020E37000B911D
:020E38000B8F1E
:020E39000B8D1F
:020E3A000B8B20
:020E3B000B8921
:020E3C000B8722
:020E3D000B8523
:020E3E000B8324
:020E3F000B8125
:020E40000B7F26
:020E41000B7D27
:020E42000B7B28
:020E43000B7929
:020E44000B772A
:020E45000B752B
:020E46000B732C
:020E47000B712D
:020E48000B6F2E
:020E49000B6D2F
:020E4A000B6B30
:020E4B000B6931
:020E4C000B6732
:020E4D000B6533
:020E4E000B6334
:020E4F000B6135
:020E50000B5F36
:020E51000B5D37
:020E52000B5B38
:020E53000B5939
:020E54000B573A
:020E55000B553B
:020E56000B533C
:020E57000B513D
:020E58000B4F3E
:020E59000B4D3F
:020E5A000B4B40
:020E5B000B4941
:020E5C000B4742
:020E5D000B4543
:020E5E000B4344
:020E5F000B4145
:020E60000B3F46
:020E61000B3D47
:020E62000B3B48
:020E63000B3949
:020E64000B374A
:020E65000B354B
:020E66000B334C
:020E67000B314D
:020E68000B2F4E
:020E69000B2D4F
:020E6A000B2B50
:020E6B000B2951
:020E6C000B2752
:020E6D000B2553
:020E6E000B2354
:020E6F000B2155
:020E70000B1F56
:020E71000B1D57
:020E72000B1B58
:020E73000B1959
:020E74000B175A
:020E75000B155B
:020E76000B135C
:020E77000B115D
:020E78000B0F5E
:020E79000B0D5F
:020E7A000B0B60
:020E7B000B0961
:020E7C000B0762
:020E7D000B0563
:020E7E000B0364
:020E7F000B0165
:020E80000AFF67
:020E81000AFD68
:020E82000AFB69
:020E83000AF96A
:020E84000AF76B
:020E85000AF56C
:020E86000AF36D
:020E87000AF16E
:020E88000AEF6F
:020E89000AED70
:020E8A000AEB71
:020E8B000AE972
:020E8C000AE773
:020E8D000AE574
:020E8E000AE375
:020E8F000AE176
:020E90000ADF77
:020E91000ADD78
:020E92000ADB79
:020E93000AD97A
:020E94000AD77B
:020E95000AD57C
:020E96000AD37D
:020E97000AD17E
:020E98000ACF7F
:020E99000ACD80
:020E9A000ACB81
:020E9B000AC982
:020E9C000AC783
:020E9D000AC584
:020E9E000AC385
:020E9F000AC186
:020EA0000ABF87
:020EA1000ABD88
:020EA2000ABB89
:020EA3000AB98A
:020EA4000AB78B
:020EA5000AB58C
:020EA6000AB38D
:020EA7000AB18E
:020EA8000AAF8F
:020EA9000AAD90
:020EAA000AAB91
:020EAB000AA992
:020EAC000AA793
:020EAD000AA594
:020EAE000AA395
:020EAF000AA196
:020EB0000A9F97
:020EB1000A9D98
:020EB2000A9B99
:020EB3000A999A
:020EB4000A979B
:020EB5000A959C
:020EB6000A939D
:020EB7000A919E
:020EB8000A8F9F
:020EB9000A8DA0
:020EBA000A8BA1
:020EBB000A89A2
:020EBC000A87A3
:020EBD000A85A4
:020EBE000A83A5
:020EBF000A81A6
:020EC0000A7FA7
:020EC1000A7DA8
:020EC2000A7BA9
:020EC3000A79AA
:020EC4000A77AB
:020EC5000A75AC
:020EC6000A73AD
:020EC7000A71AE
:020EC8000A6FAF
:020EC9000A6DB0
:020ECA000A6BB1
:020ECB000A69B2
:020ECC000A67B3
:020ECD000A65B4
:020ECE000A63B5
:020ECF000A61B6
:020ED0000A5FB7
:020ED1000A5DB8
:020ED2000A5BB9
:020ED3000A59BA
:020ED4000A57BB
:020ED5000A55BC
:020ED6000A53BD
:020ED7000A51BE
:020ED8000A4FBF
:020ED9000A4DC0
:020EDA000A4BC1
:020EDB000A49C2
:020EDC000A47C3
:020EDD000A45C4
:020EDE000A43C5
:020EDF000A41C6
:020EE0000A3FC7
:020EE1000A3DC8
:020EE2000A3BC9
:020EE3000A39CA
:020EE4000A37CB
:020EE5000A35CC
:020EE6000A33CD
:020EE7000A31CE
:020EE8000A2FCF
:020EE9000A2DD0
:020EEA000A2BD1
:020EEB000A29D2
:020EEC000A27D3
:020EED000A25D4
:020EEE000A23D5
:020EEF000A21D6
:020EF0000A1FD7
:020EF1000A1DD8
:020EF2000A1BD9
:020EF3000A19DA
:020EF4000A17DB
:020EF5000A15DC
:020EF6000A13DD
:020EF7000A11DE
:020EF8000A0FDF
:020EF9000A0DE0
:020EFA000A0BE1
:020EFB000A09E2
:020EFC000A07E3
:020EFD000A05E4
:020EFE000A03E5
:020EFF000A01E6
:020F000009FFE7
:020F010009FDE8
:020F020009FBE9
:020F030009F9EA
:020F040009F7EB
:020F050009F5EC
:020F060009F3ED
:020F070009F1EE
:020F080009EFEF
:020F090009EDF0
:020F0A0009EBF1
:020F0B0009E9F2
:020F0C0009E7F3
:020F0D0009E5F4
:020F0E0009E3F5
:020F0F0009E1F6
:020F100009DFF7
:020F110009DDF8
:020F120009DBF9
:020F130009D9FA
:020F140009D7FB
:020F150009D5FC
:020F160009D3FD
:020F170009D1FE
:020F180009CFFF
:020F190009CD00
:020F1A0009CB01
:020F1B0009C902
:020F1C0009C703
:020F1D0009C504
:020F1E0009C305
:020F1F0009C106
:020F200009BF07
:020F210009BD08
:020F220009BB09
:020F230009B90A
:020F240009B70B
:020F250009B50C
:020F260009B30D
:020F270009B10E
:020F280009AF0F
:020F290009AD10
:020F2A0009AB11
:020F2B0009A912
:020F2C0009A713
:020F2D0009A514
:020F2E0009A315
:020F2F0009A116
:020F3000099F17
:020F3100099D18
:020F3200099B19
:020F330009991A
:020F340009971B
:020F350009951C
:020F360009931D
:020F370009911E
:020F3800098F1F
:020F3900098D20
:020F3A00098B21
:020F3B00098922
:020F3C00098723
:020F3D00098524
:020F3E00098325
:020F3F00098126
:020F4000097F27
:020F4100097D28
:020F4200097B29
:020F430009792A
:020F440009772B
:020F450009752C
:020F460009732D
:020F470009712E
:020F4800096F2F
:020F4900096D30
:020F4A00096B31
:020F4B00096932
:020F4C00096733
:020F4D00096534
:020F4E00096335
:020F4F00096136
:020F5000095F37
:020F5100095D38
:020F5200095B39
:020F530009593A
:020F540009573B
:020F550009553C
:020F560009533D
:020F570009513E
:020F5800094F3F
:020F5900094D40
:020F5A00094B41
:020F5B00094942
:020F5C00094743
:020F5D00094544
:020F5E00094345
:020F5F00094146
:020F6000093F47
:020F6100093D48
:020F6200093B49
:020F630009394A
:020F640009374B
:020F650009354C
:020F660009334D
:020F670009314E
:020F6800092F4F
:020F6900092D50
:020F6A00092B51
:020F6B00092952
:020F6C00092753
:020F6D00092554
:020F6E00092355
:020F6F00092156
:020F7000091F57
:020F7100091D58
:020F7200091B59
:020F730009195A
:020F740009175B
:020F750009155C
:020F760009135D
:020F770009115E
:020F7800090F5F
:020F7900090D60
:020F7A00090B61
:020F7B00090962
:020F7C00090763
:020F7D00090564
:020F7E00090365
:020F7F00090166
:020F800008FF68
:020F810008FD69
:020F820008FB6A
:020F830008F96B
:020F840008F76C
:020F850008F56D
:020F860008F36E
:020F870008F16F
:020F880008EF70
:020F890008ED71
:020F8A0008EB72
:020F8B0008E973
:020F8C0008E774
:020F8D0008E575
:020F8E0008E376
:020F8F0008E177
:020F900008DF78
:020F910008DD79
:020F920008DB7A
:020F930008D97B
:020F940008D77C
:020F950008D57D
:020F960008D37E
:020F970008D17F
:020F980008CF80
:020F990008CD81
:020F9A0008CB82
:020F9B0008C983
:020F9C0008C784
:020F9D0008C585
:020F9E0008C386
:020F9F0008C187
